{"_format":"hh-sol-artifact-1","contractName":"AwesomeCapybaraNFTCollection","sourceName":"contracts/AwesomeCapybaraNFTCollection.sol","abi":[{"inputs":[{"internalType":"string","name":"_contractName","type":"string"},{"internalType":"string","name":"_contractDescription","type":"string"},{"internalType":"string","name":"_contractImage","type":"string"}],"stateMutability":"nonpayable","type":"constructor"},{"anonymous":false,"inputs":[{"indexed":true,"internalType":"address","name":"owner","type":"address"},{"indexed":true,"internalType":"address","name":"approved","type":"address"},{"indexed":true,"internalType":"uint256","name":"tokenId","type":"uint256"}],"name":"Approval","type":"event"},{"anonymous":false,"inputs":[{"indexed":true,"internalType":"address","name":"owner","type":"address"},{"indexed":true,"internalType":"address","name":"operator","type":"address"},{"indexed":false,"internalType":"bool","name":"approved","type":"bool"}],"name":"ApprovalForAll","type":"event"},{"anonymous":false,"inputs":[{"indexed":false,"internalType":"string","name":"title","type":"string"},{"indexed":false,"internalType":"string","name":"description","type":"string"},{"indexed":false,"internalType":"string","name":"image","type":"string"},{"indexed":false,"internalType":"uint256","name":"timestamp","type":"uint256"}],"name":"ItemAdded","type":"event"},{"anonymous":false,"inputs":[{"indexed":false,"internalType":"address","name":"from","type":"address"},{"indexed":false,"internalType":"uint256","name":"token","type":"uint256"},{"indexed":false,"internalType":"uint256","name":"timestamp","type":"uint256"}],"name":"TokenMinted","type":"event"},{"anonymous":false,"inputs":[{"indexed":true,"internalType":"address","name":"from","type":"address"},{"indexed":true,"internalType":"address","name":"to","type":"address"},{"indexed":true,"internalType":"uint256","name":"tokenId","type":"uint256"}],"name":"Transfer","type":"event"},{"inputs":[{"internalType":"string","name":"name","type":"string"},{"internalType":"string","name":"description","type":"string"},{"internalType":"string","name":"image","type":"string"}],"name":"addItemToCollection","outputs":[],"stateMutability":"nonpayable","type":"function"},{"inputs":[{"internalType":"address","name":"to","type":"address"},{"internalType":"uint256","name":"tokenId","type":"uint256"}],"name":"approve","outputs":[],"stateMutability":"nonpayable","type":"function"},{"inputs":[],"name":"availableItemsLength","outputs":[{"internalType":"uint256","name":"","type":"uint256"}],"stateMutability":"view","type":"function"},{"inputs":[{"internalType":"address","name":"owner","type":"address"}],"name":"balanceOf","outputs":[{"internalType":"uint256","name":"","type":"uint256"}],"stateMutability":"view","type":"function"},{"inputs":[],"name":"collectionSize","outputs":[{"internalType":"uint256","name":"","type":"uint256"}],"stateMutability":"view","type":"function"},{"inputs":[],"name":"contractURI","outputs":[{"internalType":"string","name":"","type":"string"}],"stateMutability":"view","type":"function"},{"inputs":[{"internalType":"uint256","name":"tokenId","type":"uint256"}],"name":"getApproved","outputs":[{"internalType":"address","name":"","type":"address"}],"stateMutability":"view","type":"function"},{"inputs":[{"internalType":"address","name":"owner","type":"address"},{"internalType":"address","name":"operator","type":"address"}],"name":"isApprovedForAll","outputs":[{"internalType":"bool","name":"","type":"bool"}],"stateMutability":"view","type":"function"},{"inputs":[],"name":"mintNFT","outputs":[],"stateMutability":"nonpayable","type":"function"},{"inputs":[],"name":"name","outputs":[{"internalType":"string","name":"","type":"string"}],"stateMutability":"view","type":"function"},{"inputs":[{"internalType":"uint256","name":"tokenId","type":"uint256"}],"name":"ownerOf","outputs":[{"internalType":"address","name":"","type":"address"}],"stateMutability":"view","type":"function"},{"inputs":[{"internalType":"address","name":"from","type":"address"},{"internalType":"address","name":"to","type":"address"},{"internalType":"uint256","name":"tokenId","type":"uint256"}],"name":"safeTransferFrom","outputs":[],"stateMutability":"nonpayable","type":"function"},{"inputs":[{"internalType":"address","name":"from","type":"address"},{"internalType":"address","name":"to","type":"address"},{"internalType":"uint256","name":"tokenId","type":"uint256"},{"internalType":"bytes","name":"_data","type":"bytes"}],"name":"safeTransferFrom","outputs":[],"stateMutability":"nonpayable","type":"function"},{"inputs":[{"internalType":"address","name":"operator","type":"address"},{"internalType":"bool","name":"approved","type":"bool"}],"name":"setApprovalForAll","outputs":[],"stateMutability":"nonpayable","type":"function"},{"inputs":[{"internalType":"bytes4","name":"interfaceId","type":"bytes4"}],"name":"supportsInterface","outputs":[{"internalType":"bool","name":"","type":"bool"}],"stateMutability":"view","type":"function"},{"inputs":[],"name":"symbol","outputs":[{"internalType":"string","name":"","type":"string"}],"stateMutability":"view","type":"function"},{"inputs":[{"internalType":"uint256","name":"tokenId","type":"uint256"}],"name":"tokenURI","outputs":[{"internalType":"string","name":"","type":"string"}],"stateMutability":"view","type":"function"},{"inputs":[{"internalType":"uint256","name":"","type":"uint256"}],"name":"tokensData","outputs":[{"internalType":"string","name":"name","type":"string"},{"internalType":"string","name":"description","type":"string"},{"internalType":"string","name":"image","type":"string"}],"stateMutability":"view","type":"function"},{"inputs":[{"internalType":"address","name":"from","type":"address"},{"internalType":"address","name":"to","type":"address"},{"internalType":"uint256","name":"tokenId","type":"uint256"}],"name":"transferFrom","outputs":[],"stateMutability":"nonpayable","type":"function"}],"bytecode":"0x60806040523480156200001157600080fd5b5060405162002b0138038062002b01833981016040819052620000349162000264565b604080518082018252601c81527f417765736f6d6543617079626172614e4654436f6c6c656374696f6e000000006020808301918252835180850190945260048452634341505960e01b90840152815191929162000095916000916200010b565b508051620000ab9060019060208401906200010b565b5050600780546001600160a01b03191633179055508251620000d59060099060208601906200010b565b508151620000eb90600a9060208501906200010b565b5080516200010190600b9060208401906200010b565b5050505062000344565b8280546200011990620002f1565b90600052602060002090601f0160209004810192826200013d576000855562000188565b82601f106200015857805160ff191683800117855562000188565b8280016001018555821562000188579182015b82811115620001885782518255916020019190600101906200016b565b50620001969291506200019a565b5090565b5b808211156200019657600081556001016200019b565b600082601f830112620001c2578081fd5b81516001600160401b0380821115620001df57620001df6200032e565b604051601f8301601f19908116603f011681019082821181831017156200020a576200020a6200032e565b8160405283815260209250868385880101111562000226578485fd5b8491505b838210156200024957858201830151818301840152908201906200022a565b838211156200025a57848385830101525b9695505050505050565b60008060006060848603121562000279578283fd5b83516001600160401b038082111562000290578485fd5b6200029e87838801620001b1565b94506020860151915080821115620002b4578384fd5b620002c287838801620001b1565b93506040860151915080821115620002d8578283fd5b50620002e786828701620001b1565b9150509250925092565b600181811c908216806200030657607f821691505b602082108114156200032857634e487b7160e01b600052602260045260246000fd5b50919050565b634e487b7160e01b600052604160045260246000fd5b6127ad80620003546000396000f3fe608060405234801561001057600080fd5b50600436106101515760003560e01c80635e16fa3c116100cd578063b88d4fde11610081578063d3bdd26d11610066578063d3bdd26d146102b3578063e8a3d485146102bb578063e985e9c5146102c357600080fd5b8063b88d4fde1461028d578063c87b56dd146102a057600080fd5b806370a08231116100b257806370a082311461025f57806395d89b4114610272578063a22cb4651461027a57600080fd5b80635e16fa3c146102395780636352211e1461024c57600080fd5b806314f710fe1161012457806342842e0e1161010957806342842e0e146101ee57806345c0f53314610201578063599ed3ff1461021757600080fd5b806314f710fe146101d357806323b872dd146101db57600080fd5b806301ffc9a71461015657806306fdde031461017e578063081812fc14610193578063095ea7b3146101be575b600080fd5b6101696101643660046122a3565b6102ff565b60405190151581526020015b60405180910390f35b61018661039c565b60405161017591906125b6565b6101a66101a1366004612371565b61042e565b6040516001600160a01b039091168152602001610175565b6101d16101cc36600461227a565b6104c8565b005b6101d16105fa565b6101d16101e9366004612130565b610712565b6101d16101fc366004612130565b610799565b6102096107b4565b604051908152602001610175565b61022a610225366004612371565b6107d2565b604051610175939291906125c9565b6101d16102473660046122db565b61098c565b6101a661025a366004612371565b610b4e565b61020961026d3660046120e4565b610bd9565b610186610c73565b6101d1610288366004612240565b610c82565b6101d161029b36600461216b565b610d47565b6101866102ae366004612371565b610dd5565b600c54610209565b61018661104f565b6101696102d13660046120fe565b6001600160a01b03918216600090815260056020908152604080832093909416825291909152205460ff1690565b60006001600160e01b031982167f80ac58cd00000000000000000000000000000000000000000000000000000000148061036257506001600160e01b031982167f5b5e139f00000000000000000000000000000000000000000000000000000000145b8061039657507f01ffc9a7000000000000000000000000000000000000000000000000000000006001600160e01b03198316145b92915050565b6060600080546103ab90612690565b80601f01602080910402602001604051908101604052809291908181526020018280546103d790612690565b80156104245780601f106103f957610100808354040283529160200191610424565b820191906000526020600020905b81548152906001019060200180831161040757829003601f168201915b5050505050905090565b6000818152600260205260408120546001600160a01b03166104ac5760405162461bcd60e51b815260206004820152602c60248201527f4552433732313a20617070726f76656420717565727920666f72206e6f6e657860448201526b34b9ba32b73a103a37b5b2b760a11b60648201526084015b60405180910390fd5b506000908152600460205260409020546001600160a01b031690565b60006104d382610b4e565b9050806001600160a01b0316836001600160a01b0316141561055d5760405162461bcd60e51b815260206004820152602160248201527f4552433732313a20617070726f76616c20746f2063757272656e74206f776e6560448201527f720000000000000000000000000000000000000000000000000000000000000060648201526084016104a3565b336001600160a01b0382161480610579575061057981336102d1565b6105eb5760405162461bcd60e51b815260206004820152603860248201527f4552433732313a20617070726f76652063616c6c6572206973206e6f74206f7760448201527f6e6572206e6f7220617070726f76656420666f7220616c6c000000000000000060648201526084016104a3565b6105f583836111fc565b505050565b600c546106495760405162461bcd60e51b815260206004820152601b60248201527f5468657265206973206e6f20617661696c61626c65206974656d73000000000060448201526064016104a3565b600061065460085490565b90506106603382611277565b61066981611295565b6000828152600d6020908152604090912082518051919261068f92849290910190611f30565b5060208281015180516106a89260018501920190611f30565b50604082015180516106c4916002840191602090910190611f30565b5050600880546001019055506040805133815260208101839052428183015290517f96234cb3d6c373a1aaa06497a540bc166d4b0359243a088eaf95e21d7253d0be9181900360600190a150565b61071c3382611336565b61078e5760405162461bcd60e51b815260206004820152603160248201527f4552433732313a207472616e736665722063616c6c6572206973206e6f74206f60448201527f776e6572206e6f7220617070726f76656400000000000000000000000000000060648201526084016104a3565b6105f5838383611429565b6105f583838360405180602001604052806000815250610d47565b600c546000906107c360085490565b6107cd9190612602565b905090565b600d602052600090815260409020805481906107ed90612690565b80601f016020809104026020016040519081016040528092919081815260200182805461081990612690565b80156108665780601f1061083b57610100808354040283529160200191610866565b820191906000526020600020905b81548152906001019060200180831161084957829003601f168201915b50505050509080600101805461087b90612690565b80601f01602080910402602001604051908101604052809291908181526020018280546108a790612690565b80156108f45780601f106108c9576101008083540402835291602001916108f4565b820191906000526020600020905b8154815290600101906020018083116108d757829003601f168201915b50505050509080600201805461090990612690565b80601f016020809104026020016040519081016040528092919081815260200182805461093590612690565b80156109825780601f1061095757610100808354040283529160200191610982565b820191906000526020600020905b81548152906001019060200180831161096557829003601f168201915b5050505050905083565b6007546001600160a01b031633146109e65760405162461bcd60e51b815260206004820152601560248201527f6f6e6c79206f776e657220697320616c6c6f776564000000000000000000000060448201526064016104a3565b6040805160806020601f8901819004028201810190925260608101878152600c928291908a908a9081908501838280828437600092019190915250505090825250604080516020601f890181900481028201810190925287815291810191908890889081908401838280828437600092019190915250505090825250604080516020601f8701819004810282018101909252858152918101919086908690819084018382808284376000920182905250939094525050835460018101855593815260209081902083518051949560030290910193610acb935084929190910190611f30565b506020828101518051610ae49260018501920190611f30565b5060408201518051610b00916002840191602090910190611f30565b5050507f1f9c28c43867df1567a986e5f87aa0eae71f3dd8837cb4a849c9472aa6d0930786868686868642604051610b3e9796959493929190612565565b60405180910390a1505050505050565b6000818152600260205260408120546001600160a01b0316806103965760405162461bcd60e51b815260206004820152602960248201527f4552433732313a206f776e657220717565727920666f72206e6f6e657869737460448201527f656e7420746f6b656e000000000000000000000000000000000000000000000060648201526084016104a3565b60006001600160a01b038216610c575760405162461bcd60e51b815260206004820152602a60248201527f4552433732313a2062616c616e636520717565727920666f7220746865207a6560448201527f726f20616464726573730000000000000000000000000000000000000000000060648201526084016104a3565b506001600160a01b031660009081526003602052604090205490565b6060600180546103ab90612690565b6001600160a01b038216331415610cdb5760405162461bcd60e51b815260206004820152601960248201527f4552433732313a20617070726f766520746f2063616c6c65720000000000000060448201526064016104a3565b3360008181526005602090815260408083206001600160a01b03871680855290835292819020805460ff191686151590811790915590519081529192917f17307eab39ab6107e8899845ad3d59bd9653f200f220920489ca2b5937696c31910160405180910390a35050565b610d513383611336565b610dc35760405162461bcd60e51b815260206004820152603160248201527f4552433732313a207472616e736665722063616c6c6572206973206e6f74206f60448201527f776e6572206e6f7220617070726f76656400000000000000000000000000000060648201526084016104a3565b610dcf84848484611603565b50505050565b6000818152600260205260409020546060906001600160a01b0316610e625760405162461bcd60e51b815260206004820152603160248201527f45524337323155524953746f726167653a2055524920717565727920666f722060448201527f6e6f6e6578697374656e7420746f6b656e00000000000000000000000000000060648201526084016104a3565b6000828152600d6020526040808220815160608101909252805482908290610e8990612690565b80601f0160208091040260200160405190810160405280929190818152602001828054610eb590612690565b8015610f025780601f10610ed757610100808354040283529160200191610f02565b820191906000526020600020905b815481529060010190602001808311610ee557829003601f168201915b50505050508152602001600182018054610f1b90612690565b80601f0160208091040260200160405190810160405280929190818152602001828054610f4790612690565b8015610f945780601f10610f6957610100808354040283529160200191610f94565b820191906000526020600020905b815481529060010190602001808311610f7757829003601f168201915b50505050508152602001600282018054610fad90612690565b80601f0160208091040260200160405190810160405280929190818152602001828054610fd990612690565b80156110265780601f10610ffb57610100808354040283529160200191611026565b820191906000526020600020905b81548152906001019060200180831161100957829003601f168201915b5050505050815250509050611048816000015182602001518360400151611681565b9392505050565b606060006103966009805461106390612690565b80601f016020809104026020016040519081016040528092919081815260200182805461108f90612690565b80156110dc5780601f106110b1576101008083540402835291602001916110dc565b820191906000526020600020905b8154815290600101906020018083116110bf57829003601f168201915b5050505050600a80546110ee90612690565b80601f016020809104026020016040519081016040528092919081815260200182805461111a90612690565b80156111675780601f1061113c57610100808354040283529160200191611167565b820191906000526020600020905b81548152906001019060200180831161114a57829003601f168201915b5050505050600b805461117990612690565b80601f01602080910402602001604051908101604052809291908181526020018280546111a590612690565b80156111f25780601f106111c7576101008083540402835291602001916111f2565b820191906000526020600020905b8154815290600101906020018083116111d557829003601f168201915b5050505050611681565b6000818152600460205260409020805473ffffffffffffffffffffffffffffffffffffffff19166001600160a01b038416908117909155819061123e82610b4e565b6001600160a01b03167f8c5be1e5ebec7d5bd14f71427d1e84f3dd0314c0f7b2291e5b200ac8c7c3b92560405160405180910390a45050565b6112918282604051806020016040528060008152506116e0565b5050565b6112b960405180606001604052806060815260200160608152602001606081525090565b6000611311434233866040516020016112fd9493929190938452602084019290925260601b6bffffffffffffffffffffffff19166040830152605482015260740190565b60405160208183030381529060405261175e565b600c5490915061132190826126cb565b9050600061132e8261178f565b949350505050565b6000818152600260205260408120546001600160a01b03166113af5760405162461bcd60e51b815260206004820152602c60248201527f4552433732313a206f70657261746f7220717565727920666f72206e6f6e657860448201526b34b9ba32b73a103a37b5b2b760a11b60648201526084016104a3565b60006113ba83610b4e565b9050806001600160a01b0316846001600160a01b031614806113f55750836001600160a01b03166113ea8461042e565b6001600160a01b0316145b8061132e57506001600160a01b0380821660009081526005602090815260408083209388168352929052205460ff1661132e565b826001600160a01b031661143c82610b4e565b6001600160a01b0316146114b85760405162461bcd60e51b815260206004820152602960248201527f4552433732313a207472616e73666572206f6620746f6b656e2074686174206960448201527f73206e6f74206f776e000000000000000000000000000000000000000000000060648201526084016104a3565b6001600160a01b0382166115335760405162461bcd60e51b8152602060048201526024808201527f4552433732313a207472616e7366657220746f20746865207a65726f2061646460448201527f726573730000000000000000000000000000000000000000000000000000000060648201526084016104a3565b61153e6000826111fc565b6001600160a01b038316600090815260036020526040812080546001929061156790849061264d565b90915550506001600160a01b0382166000908152600360205260408120805460019290611595908490612602565b9091555050600081815260026020526040808220805473ffffffffffffffffffffffffffffffffffffffff19166001600160a01b0386811691821790925591518493918716917fddf252ad1be2c89b69c2b068fc378daa952ba7f163c4a11628f55a4df523b3ef91a4505050565b61160e848484611429565b61161a84848484611ade565b610dcf5760405162461bcd60e51b815260206004820152603260248201527f4552433732313a207472616e7366657220746f206e6f6e20455243373231526560448201527131b2b4bb32b91034b6b83632b6b2b73a32b960711b60648201526084016104a3565b606060006116b185858560405160200161169d939291906123fa565b604051602081830303815290604052611c36565b90506000816040516020016116c691906124e4565b60408051808303601f190181529190529695505050505050565b6116ea8383611de1565b6116f76000848484611ade565b6105f55760405162461bcd60e51b815260206004820152603260248201527f4552433732313a207472616e7366657220746f206e6f6e20455243373231526560448201527131b2b4bb32b91034b6b83632b6b2b73a32b960711b60648201526084016104a3565b60008160405160200161177191906123de565b60408051601f19818403018152919052805160209091012092915050565b6117b360405180606001604052806060815260200160608152602001606081525090565b6000600c83815481106117d657634e487b7160e01b600052603260045260246000fd5b90600052602060002090600302016040518060600160405290816000820180546117ff90612690565b80601f016020809104026020016040519081016040528092919081815260200182805461182b90612690565b80156118785780601f1061184d57610100808354040283529160200191611878565b820191906000526020600020905b81548152906001019060200180831161185b57829003601f168201915b5050505050815260200160018201805461189190612690565b80601f01602080910402602001604051908101604052809291908181526020018280546118bd90612690565b801561190a5780601f106118df5761010080835404028352916020019161190a565b820191906000526020600020905b8154815290600101906020018083116118ed57829003601f168201915b5050505050815260200160028201805461192390612690565b80601f016020809104026020016040519081016040528092919081815260200182805461194f90612690565b801561199c5780601f106119715761010080835404028352916020019161199c565b820191906000526020600020905b81548152906001019060200180831161197f57829003601f168201915b5050505050815250509050600c6001600c805490506119bb919061264d565b815481106119d957634e487b7160e01b600052603260045260246000fd5b9060005260206000209060030201600c8481548110611a0857634e487b7160e01b600052603260045260246000fd5b90600052602060002090600302016000820181600001908054611a2a90612690565b611a35929190611fb4565b506001820181600101908054611a4a90612690565b611a55929190611fb4565b506002820181600201908054611a6a90612690565b611a75929190611fb4565b50905050600c805480611a9857634e487b7160e01b600052603160045260246000fd5b60008281526020812060001990920191600383020190611ab8828261202f565b611ac660018301600061202f565b611ad460028301600061202f565b5050905592915050565b60006001600160a01b0384163b15611c2b57604051630a85bd0160e11b81526001600160a01b0385169063150b7a0290611b22903390899088908890600401612529565b602060405180830381600087803b158015611b3c57600080fd5b505af1925050508015611b6c575060408051601f3d908101601f19168201909252611b69918101906122bf565b60015b611c11573d808015611b9a576040519150601f19603f3d011682016040523d82523d6000602084013e611b9f565b606091505b508051611c095760405162461bcd60e51b815260206004820152603260248201527f4552433732313a207472616e7366657220746f206e6f6e20455243373231526560448201527131b2b4bb32b91034b6b83632b6b2b73a32b960711b60648201526084016104a3565b805181602001fd5b6001600160e01b031916630a85bd0160e11b14905061132e565b506001949350505050565b805160609080611c56575050604080516020810190915260008152919050565b60006003611c65836002612602565b611c6f919061261a565b611c7a90600461262e565b90506000611c89826020612602565b67ffffffffffffffff811115611caf57634e487b7160e01b600052604160045260246000fd5b6040519080825280601f01601f191660200182016040528015611cd9576020820181803683370190505b5090506000604051806060016040528060408152602001612738604091399050600181016020830160005b86811015611d65576003818a01810151603f601282901c8116860151600c83901c8216870151600684901c831688015192909316870151600891821b60ff94851601821b92841692909201901b91160160e01b835260049092019101611d04565b506003860660018114611d7f5760028114611dab57611dd3565b7f3d3d000000000000000000000000000000000000000000000000000000000000600119830152611dd3565b7f3d000000000000000000000000000000000000000000000000000000000000006000198301525b505050918152949350505050565b6001600160a01b038216611e375760405162461bcd60e51b815260206004820181905260248201527f4552433732313a206d696e7420746f20746865207a65726f206164647265737360448201526064016104a3565b6000818152600260205260409020546001600160a01b031615611e9c5760405162461bcd60e51b815260206004820152601c60248201527f4552433732313a20746f6b656e20616c7265616479206d696e7465640000000060448201526064016104a3565b6001600160a01b0382166000908152600360205260408120805460019290611ec5908490612602565b9091555050600081815260026020526040808220805473ffffffffffffffffffffffffffffffffffffffff19166001600160a01b03861690811790915590518392907fddf252ad1be2c89b69c2b068fc378daa952ba7f163c4a11628f55a4df523b3ef908290a45050565b828054611f3c90612690565b90600052602060002090601f016020900481019282611f5e5760008555611fa4565b82601f10611f7757805160ff1916838001178555611fa4565b82800160010185558215611fa4579182015b82811115611fa4578251825591602001919060010190611f89565b50611fb092915061206c565b5090565b828054611fc090612690565b90600052602060002090601f016020900481019282611fe25760008555611fa4565b82601f10611ff35780548555611fa4565b82800160010185558215611fa457600052602060002091601f016020900482015b82811115611fa4578254825591600101919060010190612014565b50805461203b90612690565b6000825580601f1061204b575050565b601f016020900490600052602060002090810190612069919061206c565b50565b5b80821115611fb0576000815560010161206d565b80356001600160a01b038116811461209857600080fd5b919050565b60008083601f8401126120ae578182fd5b50813567ffffffffffffffff8111156120c5578182fd5b6020830191508360208285010111156120dd57600080fd5b9250929050565b6000602082840312156120f5578081fd5b61104882612081565b60008060408385031215612110578081fd5b61211983612081565b915061212760208401612081565b90509250929050565b600080600060608486031215612144578081fd5b61214d84612081565b925061215b60208501612081565b9150604084013590509250925092565b60008060008060808587031215612180578081fd5b61218985612081565b935061219760208601612081565b925060408501359150606085013567ffffffffffffffff808211156121ba578283fd5b818701915087601f8301126121cd578283fd5b8135818111156121df576121df61270b565b604051601f8201601f19908116603f011681019083821181831017156122075761220761270b565b816040528281528a602084870101111561221f578586fd5b82602086016020830137918201602001949094529598949750929550505050565b60008060408385031215612252578182fd5b61225b83612081565b91506020830135801515811461226f578182fd5b809150509250929050565b6000806040838503121561228c578182fd5b61229583612081565b946020939093013593505050565b6000602082840312156122b4578081fd5b813561104881612721565b6000602082840312156122d0578081fd5b815161104881612721565b600080600080600080606087890312156122f3578182fd5b863567ffffffffffffffff8082111561230a578384fd5b6123168a838b0161209d565b9098509650602089013591508082111561232e578384fd5b61233a8a838b0161209d565b90965094506040890135915080821115612352578384fd5b5061235f89828a0161209d565b979a9699509497509295939492505050565b600060208284031215612382578081fd5b5035919050565b600081518084526123a1816020860160208601612664565b601f01601f19169290920160200192915050565b81835281816020850137506000828201602090810191909152601f909101601f19169091010190565b600082516123f0818460208701612664565b9190910192915050565b7f7b226e616d65223a20220000000000000000000000000000000000000000000081526000845161243281600a850160208901612664565b7f222c20226465736372697074696f6e223a202200000000000000000000000000600a91840191820152845161246f81601d840160208901612664565b7f222c2022696d616765223a202200000000000000000000000000000000000000601d929091019182015283516124ad81602a840160208801612664565b7f227d000000000000000000000000000000000000000000000000000000000000602a9290910191820152602c0195945050505050565b7f646174613a6170706c69636174696f6e2f6a736f6e3b6261736536342c00000081526000825161251c81601d850160208701612664565b91909101601d0192915050565b60006001600160a01b0380871683528086166020840152508360408301526080606083015261255b6080830184612389565b9695505050505050565b60808152600061257960808301898b6123b5565b828103602084015261258c81888a6123b5565b905082810360408401526125a18186886123b5565b91505082606083015298975050505050505050565b6020815260006110486020830184612389565b6060815260006125dc6060830186612389565b82810360208401526125ee8186612389565b9050828103604084015261255b8185612389565b60008219821115612615576126156126df565b500190565b600082612629576126296126f5565b500490565b6000816000190483118215151615612648576126486126df565b500290565b60008282101561265f5761265f6126df565b500390565b60005b8381101561267f578181015183820152602001612667565b83811115610dcf5750506000910152565b600181811c908216806126a457607f821691505b602082108114156126c557634e487b7160e01b600052602260045260246000fd5b50919050565b6000826126da576126da6126f5565b500690565b634e487b7160e01b600052601160045260246000fd5b634e487b7160e01b600052601260045260246000fd5b634e487b7160e01b600052604160045260246000fd5b6001600160e01b03198116811461206957600080fdfe4142434445464748494a4b4c4d4e4f505152535455565758595a6162636465666768696a6b6c6d6e6f707172737475767778797a303132333435363738392b2fa264697066735822122062794181cb517455b9a8d7de24d22da852b94f842d380a593375889dc46901b864736f6c63430008040033","linkReferences":{},"deployedLinkReferences":{},"address":"0x7fFc84D1E27771Ac7b3DdB3EB5975A4Ce771EC6D"}