{"_format":"hh-sol-artifact-1","contractName":"AwesomeCapybaraNFTCollection","sourceName":"contracts/AwesomeCapybaraNFTCollection.sol","abi":[{"inputs":[],"stateMutability":"nonpayable","type":"constructor"},{"anonymous":false,"inputs":[{"indexed":true,"internalType":"address","name":"owner","type":"address"},{"indexed":true,"internalType":"address","name":"approved","type":"address"},{"indexed":true,"internalType":"uint256","name":"tokenId","type":"uint256"}],"name":"Approval","type":"event"},{"anonymous":false,"inputs":[{"indexed":true,"internalType":"address","name":"owner","type":"address"},{"indexed":true,"internalType":"address","name":"operator","type":"address"},{"indexed":false,"internalType":"bool","name":"approved","type":"bool"}],"name":"ApprovalForAll","type":"event"},{"anonymous":false,"inputs":[{"indexed":false,"internalType":"string","name":"title","type":"string"},{"indexed":false,"internalType":"string","name":"description","type":"string"},{"indexed":false,"internalType":"string","name":"image","type":"string"},{"indexed":false,"internalType":"uint256","name":"timestamp","type":"uint256"}],"name":"ItemAdded","type":"event"},{"anonymous":false,"inputs":[{"indexed":false,"internalType":"address","name":"from","type":"address"},{"indexed":false,"internalType":"uint256","name":"token","type":"uint256"},{"indexed":false,"internalType":"uint256","name":"timestamp","type":"uint256"}],"name":"TokenMinted","type":"event"},{"anonymous":false,"inputs":[{"indexed":true,"internalType":"address","name":"from","type":"address"},{"indexed":true,"internalType":"address","name":"to","type":"address"},{"indexed":true,"internalType":"uint256","name":"tokenId","type":"uint256"}],"name":"Transfer","type":"event"},{"inputs":[{"internalType":"string","name":"name","type":"string"},{"internalType":"string","name":"description","type":"string"},{"internalType":"string","name":"image","type":"string"}],"name":"addItemToCollection","outputs":[],"stateMutability":"nonpayable","type":"function"},{"inputs":[{"internalType":"address","name":"to","type":"address"},{"internalType":"uint256","name":"tokenId","type":"uint256"}],"name":"approve","outputs":[],"stateMutability":"nonpayable","type":"function"},{"inputs":[],"name":"availableItemsLength","outputs":[{"internalType":"uint256","name":"","type":"uint256"}],"stateMutability":"view","type":"function"},{"inputs":[{"internalType":"address","name":"owner","type":"address"}],"name":"balanceOf","outputs":[{"internalType":"uint256","name":"","type":"uint256"}],"stateMutability":"view","type":"function"},{"inputs":[],"name":"collectionSize","outputs":[{"internalType":"uint256","name":"","type":"uint256"}],"stateMutability":"view","type":"function"},{"inputs":[{"internalType":"uint256","name":"tokenId","type":"uint256"}],"name":"getApproved","outputs":[{"internalType":"address","name":"","type":"address"}],"stateMutability":"view","type":"function"},{"inputs":[{"internalType":"address","name":"owner","type":"address"},{"internalType":"address","name":"operator","type":"address"}],"name":"isApprovedForAll","outputs":[{"internalType":"bool","name":"","type":"bool"}],"stateMutability":"view","type":"function"},{"inputs":[],"name":"mintNFT","outputs":[],"stateMutability":"nonpayable","type":"function"},{"inputs":[],"name":"name","outputs":[{"internalType":"string","name":"","type":"string"}],"stateMutability":"view","type":"function"},{"inputs":[{"internalType":"uint256","name":"tokenId","type":"uint256"}],"name":"ownerOf","outputs":[{"internalType":"address","name":"","type":"address"}],"stateMutability":"view","type":"function"},{"inputs":[{"internalType":"address","name":"from","type":"address"},{"internalType":"address","name":"to","type":"address"},{"internalType":"uint256","name":"tokenId","type":"uint256"}],"name":"safeTransferFrom","outputs":[],"stateMutability":"nonpayable","type":"function"},{"inputs":[{"internalType":"address","name":"from","type":"address"},{"internalType":"address","name":"to","type":"address"},{"internalType":"uint256","name":"tokenId","type":"uint256"},{"internalType":"bytes","name":"_data","type":"bytes"}],"name":"safeTransferFrom","outputs":[],"stateMutability":"nonpayable","type":"function"},{"inputs":[{"internalType":"address","name":"operator","type":"address"},{"internalType":"bool","name":"approved","type":"bool"}],"name":"setApprovalForAll","outputs":[],"stateMutability":"nonpayable","type":"function"},{"inputs":[{"internalType":"bytes4","name":"interfaceId","type":"bytes4"}],"name":"supportsInterface","outputs":[{"internalType":"bool","name":"","type":"bool"}],"stateMutability":"view","type":"function"},{"inputs":[],"name":"symbol","outputs":[{"internalType":"string","name":"","type":"string"}],"stateMutability":"view","type":"function"},{"inputs":[{"internalType":"uint256","name":"tokenId","type":"uint256"}],"name":"tokenURI","outputs":[{"internalType":"string","name":"","type":"string"}],"stateMutability":"view","type":"function"},{"inputs":[{"internalType":"address","name":"from","type":"address"},{"internalType":"address","name":"to","type":"address"},{"internalType":"uint256","name":"tokenId","type":"uint256"}],"name":"transferFrom","outputs":[],"stateMutability":"nonpayable","type":"function"}],"bytecode":"0x60806040523480156200001157600080fd5b506040518060400160405280601c81526020017f417765736f6d6543617079626172614e4654436f6c6c656374696f6e000000008152506040518060400160405280600481526020017f4341505900000000000000000000000000000000000000000000000000000000815250816000908051906020019062000096929190620000f9565b508060019080519060200190620000af929190620000f9565b50505033600760006101000a81548173ffffffffffffffffffffffffffffffffffffffff021916908373ffffffffffffffffffffffffffffffffffffffff1602179055506200020e565b8280546200010790620001a9565b90600052602060002090601f0160209004810192826200012b576000855562000177565b82601f106200014657805160ff191683800117855562000177565b8280016001018555821562000177579182015b828111156200017657825182559160200191906001019062000159565b5b5090506200018691906200018a565b5090565b5b80821115620001a55760008160009055506001016200018b565b5090565b60006002820490506001821680620001c257607f821691505b60208210811415620001d957620001d8620001df565b5b50919050565b7f4e487b7100000000000000000000000000000000000000000000000000000000600052602260045260246000fd5b613d1f806200021e6000396000f3fe608060405234801561001057600080fd5b506004361061011b5760003560e01c80635e16fa3c116100b2578063a22cb46511610081578063c87b56dd11610066578063c87b56dd146102ec578063d3bdd26d1461031c578063e985e9c51461033a5761011b565b8063a22cb465146102b4578063b88d4fde146102d05761011b565b80635e16fa3c1461021a5780636352211e1461023657806370a082311461026657806395d89b41146102965761011b565b806314f710fe116100ee57806314f710fe146101ba57806323b872dd146101c457806342842e0e146101e057806345c0f533146101fc5761011b565b806301ffc9a71461012057806306fdde0314610150578063081812fc1461016e578063095ea7b31461019e575b600080fd5b61013a600480360381019061013591906127aa565b61036a565b6040516101479190612f1e565b60405180910390f35b61015861044c565b6040516101659190612f99565b60405180910390f35b610188600480360381019061018391906128a0565b6104de565b6040516101959190612e80565b60405180910390f35b6101b860048036038101906101b3919061276e565b610563565b005b6101c261067b565b005b6101de60048036038101906101d99190612668565b6107bb565b005b6101fa60048036038101906101f59190612668565b61081b565b005b61020461083b565b60405161021191906131fb565b60405180910390f35b610234600480360381019061022f91906127fc565b61085c565b005b610250600480360381019061024b91906128a0565b610aa2565b60405161025d9190612e80565b60405180910390f35b610280600480360381019061027b9190612603565b610b54565b60405161028d91906131fb565b60405180910390f35b61029e610c0c565b6040516102ab9190612f99565b60405180910390f35b6102ce60048036038101906102c99190612732565b610c9e565b005b6102ea60048036038101906102e591906126b7565b610e1f565b005b610306600480360381019061030191906128a0565b610e81565b6040516103139190612f99565b60405180910390f35b610324610fd3565b60405161033191906131fb565b60405180910390f35b610354600480360381019061034f919061262c565b610fe0565b6040516103619190612f1e565b60405180910390f35b60007f80ac58cd000000000000000000000000000000000000000000000000000000007bffffffffffffffffffffffffffffffffffffffffffffffffffffffff1916827bffffffffffffffffffffffffffffffffffffffffffffffffffffffff1916148061043557507f5b5e139f000000000000000000000000000000000000000000000000000000007bffffffffffffffffffffffffffffffffffffffffffffffffffffffff1916827bffffffffffffffffffffffffffffffffffffffffffffffffffffffff1916145b80610445575061044482611074565b5b9050919050565b60606000805461045b9061347a565b80601f01602080910402602001604051908101604052809291908181526020018280546104879061347a565b80156104d45780601f106104a9576101008083540402835291602001916104d4565b820191906000526020600020905b8154815290600101906020018083116104b757829003601f168201915b5050505050905090565b60006104e9826110de565b610528576040517f08c379a000000000000000000000000000000000000000000000000000000000815260040161051f9061315b565b60405180910390fd5b6004600083815260200190815260200160002060009054906101000a900473ffffffffffffffffffffffffffffffffffffffff169050919050565b600061056e82610aa2565b90508073ffffffffffffffffffffffffffffffffffffffff168373ffffffffffffffffffffffffffffffffffffffff1614156105df576040517f08c379a00000000000000000000000000000000000000000000000000000000081526004016105d6906131bb565b60405180910390fd5b8073ffffffffffffffffffffffffffffffffffffffff166105fe61114a565b73ffffffffffffffffffffffffffffffffffffffff16148061062d575061062c8161062761114a565b610fe0565b5b61066c576040517f08c379a00000000000000000000000000000000000000000000000000000000081526004016106639061307b565b60405180910390fd5b6106768383611152565b505050565b6000600980549050116106c3576040517f08c379a00000000000000000000000000000000000000000000000000000000081526004016106ba90612fbb565b60405180910390fd5b60006106cf600861120b565b90506106db3382611219565b60006106e682611237565b905060006106f882600001518461129b565b9050600061070a8360200151856112ef565b9050600061073e8383866040015160405160200161072a93929190612db3565b604051602081830303815290604052611360565b90506000816040516020016107539190612e10565b604051602081830303815290604052905061076e868261151e565b6107786008611592565b7f96234cb3d6c373a1aaa06497a540bc166d4b0359243a088eaf95e21d7253d0be3387426040516107ab93929190612ee7565b60405180910390a1505050505050565b6107cc6107c661114a565b826115a8565b61080b576040517f08c379a0000000000000000000000000000000000000000000000000000000008152600401610802906131db565b60405180910390fd5b610816838383611686565b505050565b61083683838360405180602001604052806000815250610e1f565b505050565b600060098054905061084d600861120b565b61085791906132af565b905090565b600760009054906101000a900473ffffffffffffffffffffffffffffffffffffffff1673ffffffffffffffffffffffffffffffffffffffff163373ffffffffffffffffffffffffffffffffffffffff16146108ec576040517f08c379a00000000000000000000000000000000000000000000000000000000081526004016108e39061311b565b60405180910390fd5b6009604051806060016040528088888080601f016020809104026020016040519081016040528093929190818152602001838380828437600081840152601f19601f82011690508083019250505050505050815260200186868080601f016020809104026020016040519081016040528093929190818152602001838380828437600081840152601f19601f82011690508083019250505050505050815260200184848080601f016020809104026020016040519081016040528093929190818152602001838380828437600081840152601f19601f8201169050808301925050505050505081525090806001815401808255809150506001900390600052602060002090600302016000909190919091506000820151816000019080519060200190610a1a929190612357565b506020820151816001019080519060200190610a37929190612357565b506040820151816002019080519060200190610a54929190612357565b5050507f1f9c28c43867df1567a986e5f87aa0eae71f3dd8837cb4a849c9472aa6d0930786868686868642604051610a929796959493929190612f39565b60405180910390a1505050505050565b6000806002600084815260200190815260200160002060009054906101000a900473ffffffffffffffffffffffffffffffffffffffff169050600073ffffffffffffffffffffffffffffffffffffffff168173ffffffffffffffffffffffffffffffffffffffff161415610b4b576040517f08c379a0000000000000000000000000000000000000000000000000000000008152600401610b42906130bb565b60405180910390fd5b80915050919050565b60008073ffffffffffffffffffffffffffffffffffffffff168273ffffffffffffffffffffffffffffffffffffffff161415610bc5576040517f08c379a0000000000000000000000000000000000000000000000000000000008152600401610bbc9061309b565b60405180910390fd5b600360008373ffffffffffffffffffffffffffffffffffffffff1673ffffffffffffffffffffffffffffffffffffffff168152602001908152602001600020549050919050565b606060018054610c1b9061347a565b80601f0160208091040260200160405190810160405280929190818152602001828054610c479061347a565b8015610c945780601f10610c6957610100808354040283529160200191610c94565b820191906000526020600020905b815481529060010190602001808311610c7757829003601f168201915b5050505050905090565b610ca661114a565b73ffffffffffffffffffffffffffffffffffffffff168273ffffffffffffffffffffffffffffffffffffffff161415610d14576040517f08c379a0000000000000000000000000000000000000000000000000000000008152600401610d0b9061303b565b60405180910390fd5b8060056000610d2161114a565b73ffffffffffffffffffffffffffffffffffffffff1673ffffffffffffffffffffffffffffffffffffffff16815260200190815260200160002060008473ffffffffffffffffffffffffffffffffffffffff1673ffffffffffffffffffffffffffffffffffffffff16815260200190815260200160002060006101000a81548160ff0219169083151502179055508173ffffffffffffffffffffffffffffffffffffffff16610dce61114a565b73ffffffffffffffffffffffffffffffffffffffff167f17307eab39ab6107e8899845ad3d59bd9653f200f220920489ca2b5937696c3183604051610e139190612f1e565b60405180910390a35050565b610e30610e2a61114a565b836115a8565b610e6f576040517f08c379a0000000000000000000000000000000000000000000000000000000008152600401610e66906131db565b60405180910390fd5b610e7b848484846118e2565b50505050565b6060610e8c826110de565b610ecb576040517f08c379a0000000000000000000000000000000000000000000000000000000008152600401610ec29061313b565b60405180910390fd5b6000600660008481526020019081526020016000208054610eeb9061347a565b80601f0160208091040260200160405190810160405280929190818152602001828054610f179061347a565b8015610f645780601f10610f3957610100808354040283529160200191610f64565b820191906000526020600020905b815481529060010190602001808311610f4757829003601f168201915b505050505090506000610f7561193e565b9050600081511415610f8b578192505050610fce565b600082511115610fc0578082604051602001610fa8929190612d53565b60405160208183030381529060405292505050610fce565b610fc984611955565b925050505b919050565b6000600980549050905090565b6000600560008473ffffffffffffffffffffffffffffffffffffffff1673ffffffffffffffffffffffffffffffffffffffff16815260200190815260200160002060008373ffffffffffffffffffffffffffffffffffffffff1673ffffffffffffffffffffffffffffffffffffffff16815260200190815260200160002060009054906101000a900460ff16905092915050565b60007f01ffc9a7000000000000000000000000000000000000000000000000000000007bffffffffffffffffffffffffffffffffffffffffffffffffffffffff1916827bffffffffffffffffffffffffffffffffffffffffffffffffffffffff1916149050919050565b60008073ffffffffffffffffffffffffffffffffffffffff166002600084815260200190815260200160002060009054906101000a900473ffffffffffffffffffffffffffffffffffffffff1673ffffffffffffffffffffffffffffffffffffffff1614159050919050565b600033905090565b816004600083815260200190815260200160002060006101000a81548173ffffffffffffffffffffffffffffffffffffffff021916908373ffffffffffffffffffffffffffffffffffffffff160217905550808273ffffffffffffffffffffffffffffffffffffffff166111c583610aa2565b73ffffffffffffffffffffffffffffffffffffffff167f8c5be1e5ebec7d5bd14f71427d1e84f3dd0314c0f7b2291e5b200ac8c7c3b92560405160405180910390a45050565b600081600001549050919050565b6112338282604051806020016040528060008152506119fc565b5050565b61123f6123dd565b600061126f4342338660405160200161125b9493929190612e32565b604051602081830303815290604052611a57565b9050600980549050816112829190613554565b9050600061128f82611a8a565b90508092505050919050565b60606000604051806060016040528060288152602001613c82602891396112c184611e2d565b856040516020016112d493929190612d77565b60405160208183030381529060405290508091505092915050565b606060006040518060400160405280601881526020017f436f6c6c656374696f6e204974656d204e756d6265723a20000000000000000081525061133284611e2d565b8560405160200161134593929190612d77565b60405160208183030381529060405290508091505092915050565b606060008251905060008114156113895760405180602001604052806000815250915050611519565b6000600360028361139a91906132af565b6113a49190613305565b60046113b09190613336565b905060006020826113c191906132af565b67ffffffffffffffff811115611400577f4e487b7100000000000000000000000000000000000000000000000000000000600052604160045260246000fd5b6040519080825280601f01601f1916602001820160405280156114325781602001600182028036833780820191505090505b5090506000604051806060016040528060408152602001613caa604091399050600181016020830160005b868110156114d65760038101905062ffffff818a015116603f8160121c168401518060081b905060ff603f83600c1c1686015116810190508060081b905060ff603f8360061c1686015116810190508060081b905060ff603f831686015116810190508060e01b9050808452600484019350505061145d565b5060038606600181146114f057600281146115005761150b565b613d3d60f01b600283035261150b565b603d60f81b60018303525b508484525050819450505050505b919050565b611527826110de565b611566576040517f08c379a000000000000000000000000000000000000000000000000000000000815260040161155d906130db565b60405180910390fd5b8060066000848152602001908152602001600020908051906020019061158d929190612357565b505050565b6001816000016000828254019250508190555050565b60006115b3826110de565b6115f2576040517f08c379a00000000000000000000000000000000000000000000000000000000081526004016115e99061305b565b60405180910390fd5b60006115fd83610aa2565b90508073ffffffffffffffffffffffffffffffffffffffff168473ffffffffffffffffffffffffffffffffffffffff16148061166c57508373ffffffffffffffffffffffffffffffffffffffff16611654846104de565b73ffffffffffffffffffffffffffffffffffffffff16145b8061167d575061167c8185610fe0565b5b91505092915050565b8273ffffffffffffffffffffffffffffffffffffffff166116a682610aa2565b73ffffffffffffffffffffffffffffffffffffffff16146116fc576040517f08c379a00000000000000000000000000000000000000000000000000000000081526004016116f39061317b565b60405180910390fd5b600073ffffffffffffffffffffffffffffffffffffffff168273ffffffffffffffffffffffffffffffffffffffff16141561176c576040517f08c379a00000000000000000000000000000000000000000000000000000000081526004016117639061301b565b60405180910390fd5b611777838383611fda565b611782600082611152565b6001600360008573ffffffffffffffffffffffffffffffffffffffff1673ffffffffffffffffffffffffffffffffffffffff16815260200190815260200160002060008282546117d29190613390565b925050819055506001600360008473ffffffffffffffffffffffffffffffffffffffff1673ffffffffffffffffffffffffffffffffffffffff168152602001908152602001600020600082825461182991906132af565b92505081905550816002600083815260200190815260200160002060006101000a81548173ffffffffffffffffffffffffffffffffffffffff021916908373ffffffffffffffffffffffffffffffffffffffff160217905550808273ffffffffffffffffffffffffffffffffffffffff168473ffffffffffffffffffffffffffffffffffffffff167fddf252ad1be2c89b69c2b068fc378daa952ba7f163c4a11628f55a4df523b3ef60405160405180910390a4505050565b6118ed848484611686565b6118f984848484611fdf565b611938576040517f08c379a000000000000000000000000000000000000000000000000000000000815260040161192f90612fdb565b60405180910390fd5b50505050565b606060405180602001604052806000815250905090565b6060611960826110de565b61199f576040517f08c379a00000000000000000000000000000000000000000000000000000000081526004016119969061319b565b60405180910390fd5b60006119a961193e565b905060008151116119c957604051806020016040528060008152506119f4565b806119d384611e2d565b6040516020016119e4929190612d53565b6040516020818303038152906040525b915050919050565b611a068383612176565b611a136000848484611fdf565b611a52576040517f08c379a0000000000000000000000000000000000000000000000000000000008152600401611a4990612fdb565b60405180910390fd5b505050565b600081604051602001611a6a9190612d3c565b6040516020818303038152906040528051906020012060001c9050919050565b611a926123dd565b600060098381548110611ace577f4e487b7100000000000000000000000000000000000000000000000000000000600052603260045260246000fd5b9060005260206000209060030201604051806060016040529081600082018054611af79061347a565b80601f0160208091040260200160405190810160405280929190818152602001828054611b239061347a565b8015611b705780601f10611b4557610100808354040283529160200191611b70565b820191906000526020600020905b815481529060010190602001808311611b5357829003601f168201915b50505050508152602001600182018054611b899061347a565b80601f0160208091040260200160405190810160405280929190818152602001828054611bb59061347a565b8015611c025780601f10611bd757610100808354040283529160200191611c02565b820191906000526020600020905b815481529060010190602001808311611be557829003601f168201915b50505050508152602001600282018054611c1b9061347a565b80601f0160208091040260200160405190810160405280929190818152602001828054611c479061347a565b8015611c945780601f10611c6957610100808354040283529160200191611c94565b820191906000526020600020905b815481529060010190602001808311611c7757829003601f168201915b505050505081525050905060096001600980549050611cb39190613390565b81548110611cea577f4e487b7100000000000000000000000000000000000000000000000000000000600052603260045260246000fd5b906000526020600020906003020160098481548110611d32577f4e487b7100000000000000000000000000000000000000000000000000000000600052603260045260246000fd5b90600052602060002090600302016000820181600001908054611d549061347a565b611d5f9291906123fe565b506001820181600101908054611d749061347a565b611d7f9291906123fe565b506002820181600201908054611d949061347a565b611d9f9291906123fe565b509050506009805480611ddb577f4e487b7100000000000000000000000000000000000000000000000000000000600052603160045260246000fd5b600190038181906000526020600020906003020160008082016000611e00919061248b565b600182016000611e10919061248b565b600282016000611e20919061248b565b5050905580915050919050565b60606000821415611e75576040518060400160405280600181526020017f30000000000000000000000000000000000000000000000000000000000000008152509050611fd5565b600082905060005b60008214611ea7578080611e90906134dd565b915050600a82611ea09190613305565b9150611e7d565b60008167ffffffffffffffff811115611ee9577f4e487b7100000000000000000000000000000000000000000000000000000000600052604160045260246000fd5b6040519080825280601f01601f191660200182016040528015611f1b5781602001600182028036833780820191505090505b5090505b60008514611fce57600182611f349190613390565b9150600a85611f439190613554565b6030611f4f91906132af565b60f81b818381518110611f8b577f4e487b7100000000000000000000000000000000000000000000000000000000600052603260045260246000fd5b60200101907effffffffffffffffffffffffffffffffffffffffffffffffffffffffffffff1916908160001a905350600a85611fc79190613305565b9450611f1f565b8093505050505b919050565b505050565b60006120008473ffffffffffffffffffffffffffffffffffffffff16612344565b15612169578373ffffffffffffffffffffffffffffffffffffffff1663150b7a0261202961114a565b8786866040518563ffffffff1660e01b815260040161204b9493929190612e9b565b602060405180830381600087803b15801561206557600080fd5b505af192505050801561209657506040513d601f19601f8201168201806040525081019061209391906127d3565b60015b612119573d80600081146120c6576040519150601f19603f3d011682016040523d82523d6000602084013e6120cb565b606091505b50600081511415612111576040517f08c379a000000000000000000000000000000000000000000000000000000000815260040161210890612fdb565b60405180910390fd5b805181602001fd5b63150b7a0260e01b7bffffffffffffffffffffffffffffffffffffffffffffffffffffffff1916817bffffffffffffffffffffffffffffffffffffffffffffffffffffffff19161491505061216e565b600190505b949350505050565b600073ffffffffffffffffffffffffffffffffffffffff168273ffffffffffffffffffffffffffffffffffffffff1614156121e6576040517f08c379a00000000000000000000000000000000000000000000000000000000081526004016121dd906130fb565b60405180910390fd5b6121ef816110de565b1561222f576040517f08c379a000000000000000000000000000000000000000000000000000000000815260040161222690612ffb565b60405180910390fd5b61223b60008383611fda565b6001600360008473ffffffffffffffffffffffffffffffffffffffff1673ffffffffffffffffffffffffffffffffffffffff168152602001908152602001600020600082825461228b91906132af565b92505081905550816002600083815260200190815260200160002060006101000a81548173ffffffffffffffffffffffffffffffffffffffff021916908373ffffffffffffffffffffffffffffffffffffffff160217905550808273ffffffffffffffffffffffffffffffffffffffff16600073ffffffffffffffffffffffffffffffffffffffff167fddf252ad1be2c89b69c2b068fc378daa952ba7f163c4a11628f55a4df523b3ef60405160405180910390a45050565b600080823b905060008111915050919050565b8280546123639061347a565b90600052602060002090601f01602090048101928261238557600085556123cc565b82601f1061239e57805160ff19168380011785556123cc565b828001600101855582156123cc579182015b828111156123cb5782518255916020019190600101906123b0565b5b5090506123d991906124cb565b5090565b60405180606001604052806060815260200160608152602001606081525090565b82805461240a9061347a565b90600052602060002090601f01602090048101928261242c576000855561247a565b82601f1061243d578054855561247a565b8280016001018555821561247a57600052602060002091601f016020900482015b8281111561247957825482559160010191906001019061245e565b5b50905061248791906124cb565b5090565b5080546124979061347a565b6000825580601f106124a957506124c8565b601f0160209004906000526020600020908101906124c791906124cb565b5b50565b5b808211156124e45760008160009055506001016124cc565b5090565b60006124fb6124f68461323b565b613216565b90508281526020810184848401111561251357600080fd5b61251e848285613438565b509392505050565b60008135905061253581613c25565b92915050565b60008135905061254a81613c3c565b92915050565b60008135905061255f81613c53565b92915050565b60008151905061257481613c53565b92915050565b600082601f83011261258b57600080fd5b813561259b8482602086016124e8565b91505092915050565b60008083601f8401126125b657600080fd5b8235905067ffffffffffffffff8111156125cf57600080fd5b6020830191508360018202830111156125e757600080fd5b9250929050565b6000813590506125fd81613c6a565b92915050565b60006020828403121561261557600080fd5b600061262384828501612526565b91505092915050565b6000806040838503121561263f57600080fd5b600061264d85828601612526565b925050602061265e85828601612526565b9150509250929050565b60008060006060848603121561267d57600080fd5b600061268b86828701612526565b935050602061269c86828701612526565b92505060406126ad868287016125ee565b9150509250925092565b600080600080608085870312156126cd57600080fd5b60006126db87828801612526565b94505060206126ec87828801612526565b93505060406126fd878288016125ee565b925050606085013567ffffffffffffffff81111561271a57600080fd5b6127268782880161257a565b91505092959194509250565b6000806040838503121561274557600080fd5b600061275385828601612526565b92505060206127648582860161253b565b9150509250929050565b6000806040838503121561278157600080fd5b600061278f85828601612526565b92505060206127a0858286016125ee565b9150509250929050565b6000602082840312156127bc57600080fd5b60006127ca84828501612550565b91505092915050565b6000602082840312156127e557600080fd5b60006127f384828501612565565b91505092915050565b6000806000806000806060878903121561281557600080fd5b600087013567ffffffffffffffff81111561282f57600080fd5b61283b89828a016125a4565b9650965050602087013567ffffffffffffffff81111561285a57600080fd5b61286689828a016125a4565b9450945050604087013567ffffffffffffffff81111561288557600080fd5b61289189828a016125a4565b92509250509295509295509295565b6000602082840312156128b257600080fd5b60006128c0848285016125ee565b91505092915050565b6128d2816133c4565b82525050565b6128e96128e4826133c4565b613526565b82525050565b6128f8816133d6565b82525050565b60006129098261326c565b6129138185613282565b9350612923818560208601613447565b61292c81613641565b840191505092915050565b60006129438385613293565b9350612950838584613438565b61295983613641565b840190509392505050565b600061296f82613277565b6129798185613293565b9350612989818560208601613447565b61299281613641565b840191505092915050565b60006129a882613277565b6129b281856132a4565b93506129c2818560208601613447565b80840191505092915050565b60006129db6013836132a4565b91506129e68261365f565b601382019050919050565b60006129fe601b83613293565b9150612a0982613688565b602082019050919050565b6000612a21603283613293565b9150612a2c826136b1565b604082019050919050565b6000612a44601c83613293565b9150612a4f82613700565b602082019050919050565b6000612a67602483613293565b9150612a7282613729565b604082019050919050565b6000612a8a601983613293565b9150612a9582613778565b602082019050919050565b6000612aad602c83613293565b9150612ab8826137a1565b604082019050919050565b6000612ad0603883613293565b9150612adb826137f0565b604082019050919050565b6000612af3602a83613293565b9150612afe8261383f565b604082019050919050565b6000612b16602983613293565b9150612b218261388e565b604082019050919050565b6000612b39602e83613293565b9150612b44826138dd565b604082019050919050565b6000612b5c6002836132a4565b9150612b678261392c565b600282019050919050565b6000612b7f602083613293565b9150612b8a82613955565b602082019050919050565b6000612ba2601583613293565b9150612bad8261397e565b602082019050919050565b6000612bc5600d836132a4565b9150612bd0826139a7565b600d82019050919050565b6000612be8603183613293565b9150612bf3826139d0565b604082019050919050565b6000612c0b602c83613293565b9150612c1682613a1f565b604082019050919050565b6000612c2e6003836132a4565b9150612c3982613a6e565b600382019050919050565b6000612c51602983613293565b9150612c5c82613a97565b604082019050919050565b6000612c74602f83613293565b9150612c7f82613ae6565b604082019050919050565b6000612c97600a836132a4565b9150612ca282613b35565b600a82019050919050565b6000612cba602183613293565b9150612cc582613b5e565b604082019050919050565b6000612cdd601d836132a4565b9150612ce882613bad565b601d82019050919050565b6000612d00603183613293565b9150612d0b82613bd6565b604082019050919050565b612d1f8161342e565b82525050565b612d36612d318261342e565b61354a565b82525050565b6000612d48828461299d565b915081905092915050565b6000612d5f828561299d565b9150612d6b828461299d565b91508190509392505050565b6000612d83828661299d565b9150612d8f828561299d565b9150612d9a82612c21565b9150612da6828461299d565b9150819050949350505050565b6000612dbe82612c8a565b9150612dca828661299d565b9150612dd5826129ce565b9150612de1828561299d565b9150612dec82612bb8565b9150612df8828461299d565b9150612e0382612b4f565b9150819050949350505050565b6000612e1b82612cd0565b9150612e27828461299d565b915081905092915050565b6000612e3e8287612d25565b602082019150612e4e8286612d25565b602082019150612e5e82856128d8565b601482019150612e6e8284612d25565b60208201915081905095945050505050565b6000602082019050612e9560008301846128c9565b92915050565b6000608082019050612eb060008301876128c9565b612ebd60208301866128c9565b612eca6040830185612d16565b8181036060830152612edc81846128fe565b905095945050505050565b6000606082019050612efc60008301866128c9565b612f096020830185612d16565b612f166040830184612d16565b949350505050565b6000602082019050612f3360008301846128ef565b92915050565b60006080820190508181036000830152612f5481898b612937565b90508181036020830152612f69818789612937565b90508181036040830152612f7e818587612937565b9050612f8d6060830184612d16565b98975050505050505050565b60006020820190508181036000830152612fb38184612964565b905092915050565b60006020820190508181036000830152612fd4816129f1565b9050919050565b60006020820190508181036000830152612ff481612a14565b9050919050565b6000602082019050818103600083015261301481612a37565b9050919050565b6000602082019050818103600083015261303481612a5a565b9050919050565b6000602082019050818103600083015261305481612a7d565b9050919050565b6000602082019050818103600083015261307481612aa0565b9050919050565b6000602082019050818103600083015261309481612ac3565b9050919050565b600060208201905081810360008301526130b481612ae6565b9050919050565b600060208201905081810360008301526130d481612b09565b9050919050565b600060208201905081810360008301526130f481612b2c565b9050919050565b6000602082019050818103600083015261311481612b72565b9050919050565b6000602082019050818103600083015261313481612b95565b9050919050565b6000602082019050818103600083015261315481612bdb565b9050919050565b6000602082019050818103600083015261317481612bfe565b9050919050565b6000602082019050818103600083015261319481612c44565b9050919050565b600060208201905081810360008301526131b481612c67565b9050919050565b600060208201905081810360008301526131d481612cad565b9050919050565b600060208201905081810360008301526131f481612cf3565b9050919050565b60006020820190506132106000830184612d16565b92915050565b6000613220613231565b905061322c82826134ac565b919050565b6000604051905090565b600067ffffffffffffffff82111561325657613255613612565b5b61325f82613641565b9050602081019050919050565b600081519050919050565b600081519050919050565b600082825260208201905092915050565b600082825260208201905092915050565b600081905092915050565b60006132ba8261342e565b91506132c58361342e565b9250827fffffffffffffffffffffffffffffffffffffffffffffffffffffffffffffffff038211156132fa576132f9613585565b5b828201905092915050565b60006133108261342e565b915061331b8361342e565b92508261332b5761332a6135b4565b5b828204905092915050565b60006133418261342e565b915061334c8361342e565b9250817fffffffffffffffffffffffffffffffffffffffffffffffffffffffffffffffff048311821515161561338557613384613585565b5b828202905092915050565b600061339b8261342e565b91506133a68361342e565b9250828210156133b9576133b8613585565b5b828203905092915050565b60006133cf8261340e565b9050919050565b60008115159050919050565b60007fffffffff0000000000000000000000000000000000000000000000000000000082169050919050565b600073ffffffffffffffffffffffffffffffffffffffff82169050919050565b6000819050919050565b82818337600083830152505050565b60005b8381101561346557808201518184015260208101905061344a565b83811115613474576000848401525b50505050565b6000600282049050600182168061349257607f821691505b602082108114156134a6576134a56135e3565b5b50919050565b6134b582613641565b810181811067ffffffffffffffff821117156134d4576134d3613612565b5b80604052505050565b60006134e88261342e565b91507fffffffffffffffffffffffffffffffffffffffffffffffffffffffffffffffff82141561351b5761351a613585565b5b600182019050919050565b600061353182613538565b9050919050565b600061354382613652565b9050919050565b6000819050919050565b600061355f8261342e565b915061356a8361342e565b92508261357a576135796135b4565b5b828206905092915050565b7f4e487b7100000000000000000000000000000000000000000000000000000000600052601160045260246000fd5b7f4e487b7100000000000000000000000000000000000000000000000000000000600052601260045260246000fd5b7f4e487b7100000000000000000000000000000000000000000000000000000000600052602260045260246000fd5b7f4e487b7100000000000000000000000000000000000000000000000000000000600052604160045260246000fd5b6000601f19601f8301169050919050565b60008160601b9050919050565b7f222c20226465736372697074696f6e223a202200000000000000000000000000600082015250565b7f5468657265206973206e6f20617661696c61626c65206974656d730000000000600082015250565b7f4552433732313a207472616e7366657220746f206e6f6e20455243373231526560008201527f63656976657220696d706c656d656e7465720000000000000000000000000000602082015250565b7f4552433732313a20746f6b656e20616c7265616479206d696e74656400000000600082015250565b7f4552433732313a207472616e7366657220746f20746865207a65726f2061646460008201527f7265737300000000000000000000000000000000000000000000000000000000602082015250565b7f4552433732313a20617070726f766520746f2063616c6c657200000000000000600082015250565b7f4552433732313a206f70657261746f7220717565727920666f72206e6f6e657860008201527f697374656e7420746f6b656e0000000000000000000000000000000000000000602082015250565b7f4552433732313a20617070726f76652063616c6c6572206973206e6f74206f7760008201527f6e6572206e6f7220617070726f76656420666f7220616c6c0000000000000000602082015250565b7f4552433732313a2062616c616e636520717565727920666f7220746865207a6560008201527f726f206164647265737300000000000000000000000000000000000000000000602082015250565b7f4552433732313a206f776e657220717565727920666f72206e6f6e657869737460008201527f656e7420746f6b656e0000000000000000000000000000000000000000000000602082015250565b7f45524337323155524953746f726167653a2055524920736574206f66206e6f6e60008201527f6578697374656e7420746f6b656e000000000000000000000000000000000000602082015250565b7f227d000000000000000000000000000000000000000000000000000000000000600082015250565b7f4552433732313a206d696e7420746f20746865207a65726f2061646472657373600082015250565b7f6f6e6c79206f776e657220697320616c6c6f7765640000000000000000000000600082015250565b7f222c2022696d616765223a202200000000000000000000000000000000000000600082015250565b7f45524337323155524953746f726167653a2055524920717565727920666f722060008201527f6e6f6e6578697374656e7420746f6b656e000000000000000000000000000000602082015250565b7f4552433732313a20617070726f76656420717565727920666f72206e6f6e657860008201527f697374656e7420746f6b656e0000000000000000000000000000000000000000602082015250565b7f202d200000000000000000000000000000000000000000000000000000000000600082015250565b7f4552433732313a207472616e73666572206f6620746f6b656e2074686174206960008201527f73206e6f74206f776e0000000000000000000000000000000000000000000000602082015250565b7f4552433732314d657461646174613a2055524920717565727920666f72206e6f60008201527f6e6578697374656e7420746f6b656e0000000000000000000000000000000000602082015250565b7f7b226e616d65223a202200000000000000000000000000000000000000000000600082015250565b7f4552433732313a20617070726f76616c20746f2063757272656e74206f776e6560008201527f7200000000000000000000000000000000000000000000000000000000000000602082015250565b7f646174613a6170706c69636174696f6e2f6a736f6e3b6261736536342c000000600082015250565b7f4552433732313a207472616e736665722063616c6c6572206973206e6f74206f60008201527f776e6572206e6f7220617070726f766564000000000000000000000000000000602082015250565b613c2e816133c4565b8114613c3957600080fd5b50565b613c45816133d6565b8114613c5057600080fd5b50565b613c5c816133e2565b8114613c6757600080fd5b50565b613c738161342e565b8114613c7e57600080fd5b5056fe417765736f6d65204361707962617261204e465420436f6c6c656374696f6e204e756d6265723a204142434445464748494a4b4c4d4e4f505152535455565758595a6162636465666768696a6b6c6d6e6f707172737475767778797a303132333435363738392b2fa2646970667358221220b22078d78b8d54d8170d17aa922cf55226921d627f6c89fac34748f65b5c3ba964736f6c63430008040033","linkReferences":{},"deployedLinkReferences":{},"address":"0xbdCBB28bAc6e5580B490B22B7d22750B057da0dA"}