{"_format":"hh-sol-artifact-1","contractName":"AwesomeCapybaraNFTCollection","sourceName":"contracts/AwesomeCapybaraNFTCollection.sol","abi":[{"inputs":[{"internalType":"string","name":"_contractName","type":"string"},{"internalType":"string","name":"_contractDescription","type":"string"},{"internalType":"string","name":"_contractImage","type":"string"}],"stateMutability":"nonpayable","type":"constructor"},{"anonymous":false,"inputs":[{"indexed":true,"internalType":"address","name":"owner","type":"address"},{"indexed":true,"internalType":"address","name":"approved","type":"address"},{"indexed":true,"internalType":"uint256","name":"tokenId","type":"uint256"}],"name":"Approval","type":"event"},{"anonymous":false,"inputs":[{"indexed":true,"internalType":"address","name":"owner","type":"address"},{"indexed":true,"internalType":"address","name":"operator","type":"address"},{"indexed":false,"internalType":"bool","name":"approved","type":"bool"}],"name":"ApprovalForAll","type":"event"},{"anonymous":false,"inputs":[{"indexed":false,"internalType":"string","name":"title","type":"string"},{"indexed":false,"internalType":"string","name":"description","type":"string"},{"indexed":false,"internalType":"string","name":"image","type":"string"},{"indexed":false,"internalType":"uint256","name":"timestamp","type":"uint256"}],"name":"ItemAdded","type":"event"},{"anonymous":false,"inputs":[{"indexed":false,"internalType":"address","name":"from","type":"address"},{"indexed":false,"internalType":"uint256","name":"token","type":"uint256"},{"indexed":false,"internalType":"uint256","name":"timestamp","type":"uint256"}],"name":"TokenMinted","type":"event"},{"anonymous":false,"inputs":[{"indexed":true,"internalType":"address","name":"from","type":"address"},{"indexed":true,"internalType":"address","name":"to","type":"address"},{"indexed":true,"internalType":"uint256","name":"tokenId","type":"uint256"}],"name":"Transfer","type":"event"},{"inputs":[{"internalType":"string","name":"name","type":"string"},{"internalType":"string","name":"description","type":"string"},{"internalType":"string","name":"image","type":"string"}],"name":"addItemToCollection","outputs":[],"stateMutability":"nonpayable","type":"function"},{"inputs":[{"internalType":"address","name":"to","type":"address"},{"internalType":"uint256","name":"tokenId","type":"uint256"}],"name":"approve","outputs":[],"stateMutability":"nonpayable","type":"function"},{"inputs":[],"name":"availableItemsLength","outputs":[{"internalType":"uint256","name":"","type":"uint256"}],"stateMutability":"view","type":"function"},{"inputs":[{"internalType":"address","name":"owner","type":"address"}],"name":"balanceOf","outputs":[{"internalType":"uint256","name":"","type":"uint256"}],"stateMutability":"view","type":"function"},{"inputs":[],"name":"collectionSize","outputs":[{"internalType":"uint256","name":"","type":"uint256"}],"stateMutability":"view","type":"function"},{"inputs":[],"name":"contractURI","outputs":[{"internalType":"string","name":"","type":"string"}],"stateMutability":"view","type":"function"},{"inputs":[{"internalType":"uint256","name":"tokenId","type":"uint256"}],"name":"getApproved","outputs":[{"internalType":"address","name":"","type":"address"}],"stateMutability":"view","type":"function"},{"inputs":[{"internalType":"address","name":"owner","type":"address"},{"internalType":"address","name":"operator","type":"address"}],"name":"isApprovedForAll","outputs":[{"internalType":"bool","name":"","type":"bool"}],"stateMutability":"view","type":"function"},{"inputs":[],"name":"mintNFT","outputs":[],"stateMutability":"nonpayable","type":"function"},{"inputs":[],"name":"name","outputs":[{"internalType":"string","name":"","type":"string"}],"stateMutability":"view","type":"function"},{"inputs":[{"internalType":"uint256","name":"tokenId","type":"uint256"}],"name":"ownerOf","outputs":[{"internalType":"address","name":"","type":"address"}],"stateMutability":"view","type":"function"},{"inputs":[{"internalType":"address","name":"from","type":"address"},{"internalType":"address","name":"to","type":"address"},{"internalType":"uint256","name":"tokenId","type":"uint256"}],"name":"safeTransferFrom","outputs":[],"stateMutability":"nonpayable","type":"function"},{"inputs":[{"internalType":"address","name":"from","type":"address"},{"internalType":"address","name":"to","type":"address"},{"internalType":"uint256","name":"tokenId","type":"uint256"},{"internalType":"bytes","name":"_data","type":"bytes"}],"name":"safeTransferFrom","outputs":[],"stateMutability":"nonpayable","type":"function"},{"inputs":[{"internalType":"address","name":"operator","type":"address"},{"internalType":"bool","name":"approved","type":"bool"}],"name":"setApprovalForAll","outputs":[],"stateMutability":"nonpayable","type":"function"},{"inputs":[{"internalType":"bytes4","name":"interfaceId","type":"bytes4"}],"name":"supportsInterface","outputs":[{"internalType":"bool","name":"","type":"bool"}],"stateMutability":"view","type":"function"},{"inputs":[],"name":"symbol","outputs":[{"internalType":"string","name":"","type":"string"}],"stateMutability":"view","type":"function"},{"inputs":[{"internalType":"uint256","name":"tokenId","type":"uint256"}],"name":"tokenURI","outputs":[{"internalType":"string","name":"","type":"string"}],"stateMutability":"view","type":"function"},{"inputs":[{"internalType":"uint256","name":"","type":"uint256"}],"name":"tokensData","outputs":[{"internalType":"string","name":"name","type":"string"},{"internalType":"string","name":"description","type":"string"},{"internalType":"string","name":"image","type":"string"}],"stateMutability":"view","type":"function"},{"inputs":[{"internalType":"address","name":"from","type":"address"},{"internalType":"address","name":"to","type":"address"},{"internalType":"uint256","name":"tokenId","type":"uint256"}],"name":"transferFrom","outputs":[],"stateMutability":"nonpayable","type":"function"}],"bytecode":"0x60806040523480156200001157600080fd5b50604051620041623803806200416283398181016040528101906200003791906200028e565b6040518060400160405280601c81526020017f417765736f6d6543617079626172614e4654436f6c6c656374696f6e000000008152506040518060400160405280600481526020017f43415059000000000000000000000000000000000000000000000000000000008152508160009080519060200190620000bb9291906200016c565b508060019080519060200190620000d49291906200016c565b50505033600760006101000a81548173ffffffffffffffffffffffffffffffffffffffff021916908373ffffffffffffffffffffffffffffffffffffffff1602179055508260099080519060200190620001309291906200016c565b5081600a9080519060200190620001499291906200016c565b5080600b9080519060200190620001629291906200016c565b505050506200049f565b8280546200017a90620003c4565b90600052602060002090601f0160209004810192826200019e5760008555620001ea565b82601f10620001b957805160ff1916838001178555620001ea565b82800160010185558215620001ea579182015b82811115620001e9578251825591602001919060010190620001cc565b5b509050620001f99190620001fd565b5090565b5b8082111562000218576000816000905550600101620001fe565b5090565b6000620002336200022d8462000358565b6200032f565b9050828152602081018484840111156200024c57600080fd5b620002598482856200038e565b509392505050565b600082601f8301126200027357600080fd5b8151620002858482602086016200021c565b91505092915050565b600080600060608486031215620002a457600080fd5b600084015167ffffffffffffffff811115620002bf57600080fd5b620002cd8682870162000261565b935050602084015167ffffffffffffffff811115620002eb57600080fd5b620002f98682870162000261565b925050604084015167ffffffffffffffff8111156200031757600080fd5b620003258682870162000261565b9150509250925092565b60006200033b6200034e565b9050620003498282620003fa565b919050565b6000604051905090565b600067ffffffffffffffff8211156200037657620003756200045f565b5b62000381826200048e565b9050602081019050919050565b60005b83811015620003ae57808201518184015260208101905062000391565b83811115620003be576000848401525b50505050565b60006002820490506001821680620003dd57607f821691505b60208210811415620003f457620003f362000430565b5b50919050565b62000405826200048e565b810181811067ffffffffffffffff821117156200042757620004266200045f565b5b80604052505050565b7f4e487b7100000000000000000000000000000000000000000000000000000000600052602260045260246000fd5b7f4e487b7100000000000000000000000000000000000000000000000000000000600052604160045260246000fd5b6000601f19601f8301169050919050565b613cb380620004af6000396000f3fe608060405234801561001057600080fd5b50600436106101515760003560e01c80635e16fa3c116100cd578063b88d4fde11610081578063d3bdd26d11610066578063d3bdd26d14610384578063e8a3d485146103a2578063e985e9c5146103c057610151565b8063b88d4fde14610338578063c87b56dd1461035457610151565b806370a08231116100b257806370a08231146102ce57806395d89b41146102fe578063a22cb4651461031c57610151565b80635e16fa3c146102825780636352211e1461029e57610151565b806314f710fe1161012457806342842e0e1161010957806342842e0e1461021657806345c0f53314610232578063599ed3ff1461025057610151565b806314f710fe146101f057806323b872dd146101fa57610151565b806301ffc9a71461015657806306fdde0314610186578063081812fc146101a4578063095ea7b3146101d4575b600080fd5b610170600480360381019061016b9190612933565b6103f0565b60405161017d9190612fde565b60405180910390f35b61018e6104d2565b60405161019b9190613059565b60405180910390f35b6101be60048036038101906101b99190612a29565b610564565b6040516101cb9190612f40565b60405180910390f35b6101ee60048036038101906101e991906128f7565b6105e9565b005b6101f8610701565b005b610214600480360381019061020f91906127f1565b61081f565b005b610230600480360381019061022b91906127f1565b61087f565b005b61023a61089f565b60405161024791906132c7565b60405180910390f35b61026a60048036038101906102659190612a29565b6108c0565b6040516102799392919061307b565b60405180910390f35b61029c60048036038101906102979190612985565b610a82565b005b6102b860048036038101906102b39190612a29565b610cc8565b6040516102c59190612f40565b60405180910390f35b6102e860048036038101906102e3919061278c565b610d7a565b6040516102f591906132c7565b60405180910390f35b610306610e32565b6040516103139190613059565b60405180910390f35b610336600480360381019061033191906128bb565b610ec4565b005b610352600480360381019061034d9190612840565b611045565b005b61036e60048036038101906103699190612a29565b6110a7565b60405161037b9190613059565b60405180910390f35b61038c6112e8565b60405161039991906132c7565b60405180910390f35b6103aa6112f5565b6040516103b79190613059565b60405180910390f35b6103da60048036038101906103d591906127b5565b6114ab565b6040516103e79190612fde565b60405180910390f35b60007f80ac58cd000000000000000000000000000000000000000000000000000000007bffffffffffffffffffffffffffffffffffffffffffffffffffffffff1916827bffffffffffffffffffffffffffffffffffffffffffffffffffffffff191614806104bb57507f5b5e139f000000000000000000000000000000000000000000000000000000007bffffffffffffffffffffffffffffffffffffffffffffffffffffffff1916827bffffffffffffffffffffffffffffffffffffffffffffffffffffffff1916145b806104cb57506104ca8261153f565b5b9050919050565b6060600080546104e190613546565b80601f016020809104026020016040519081016040528092919081815260200182805461050d90613546565b801561055a5780601f1061052f5761010080835404028352916020019161055a565b820191906000526020600020905b81548152906001019060200180831161053d57829003601f168201915b5050505050905090565b600061056f826115a9565b6105ae576040517f08c379a00000000000000000000000000000000000000000000000000000000081526004016105a590613247565b60405180910390fd5b6004600083815260200190815260200160002060009054906101000a900473ffffffffffffffffffffffffffffffffffffffff169050919050565b60006105f482610cc8565b90508073ffffffffffffffffffffffffffffffffffffffff168373ffffffffffffffffffffffffffffffffffffffff161415610665576040517f08c379a000000000000000000000000000000000000000000000000000000000815260040161065c90613287565b60405180910390fd5b8073ffffffffffffffffffffffffffffffffffffffff16610684611615565b73ffffffffffffffffffffffffffffffffffffffff1614806106b357506106b2816106ad611615565b6114ab565b5b6106f2576040517f08c379a00000000000000000000000000000000000000000000000000000000081526004016106e990613187565b60405180910390fd5b6106fc838361161d565b505050565b6000600c8054905011610749576040517f08c379a0000000000000000000000000000000000000000000000000000000008152600401610740906130c7565b60405180910390fd5b600061075560086116d6565b905061076133826116e4565b61076a81611702565b600d600083815260200190815260200160002060008201518160000190805190602001906107999291906124e0565b5060208201518160010190805190602001906107b69291906124e0565b5060408201518160020190805190602001906107d39291906124e0565b509050506107e16008611766565b7f96234cb3d6c373a1aaa06497a540bc166d4b0359243a088eaf95e21d7253d0be33824260405161081493929190612fa7565b60405180910390a150565b61083061082a611615565b8261177c565b61086f576040517f08c379a0000000000000000000000000000000000000000000000000000000008152600401610866906132a7565b60405180910390fd5b61087a83838361185a565b505050565b61089a83838360405180602001604052806000815250611045565b505050565b6000600c805490506108b160086116d6565b6108bb919061337b565b905090565b600d6020528060005260406000206000915090508060000180546108e390613546565b80601f016020809104026020016040519081016040528092919081815260200182805461090f90613546565b801561095c5780601f106109315761010080835404028352916020019161095c565b820191906000526020600020905b81548152906001019060200180831161093f57829003601f168201915b50505050509080600101805461097190613546565b80601f016020809104026020016040519081016040528092919081815260200182805461099d90613546565b80156109ea5780601f106109bf576101008083540402835291602001916109ea565b820191906000526020600020905b8154815290600101906020018083116109cd57829003601f168201915b5050505050908060020180546109ff90613546565b80601f0160208091040260200160405190810160405280929190818152602001828054610a2b90613546565b8015610a785780601f10610a4d57610100808354040283529160200191610a78565b820191906000526020600020905b815481529060010190602001808311610a5b57829003601f168201915b5050505050905083565b600760009054906101000a900473ffffffffffffffffffffffffffffffffffffffff1673ffffffffffffffffffffffffffffffffffffffff163373ffffffffffffffffffffffffffffffffffffffff1614610b12576040517f08c379a0000000000000000000000000000000000000000000000000000000008152600401610b0990613207565b60405180910390fd5b600c604051806060016040528088888080601f016020809104026020016040519081016040528093929190818152602001838380828437600081840152601f19601f82011690508083019250505050505050815260200186868080601f016020809104026020016040519081016040528093929190818152602001838380828437600081840152601f19601f82011690508083019250505050505050815260200184848080601f016020809104026020016040519081016040528093929190818152602001838380828437600081840152601f19601f8201169050808301925050505050505081525090806001815401808255809150506001900390600052602060002090600302016000909190919091506000820151816000019080519060200190610c409291906124e0565b506020820151816001019080519060200190610c5d9291906124e0565b506040820151816002019080519060200190610c7a9291906124e0565b5050507f1f9c28c43867df1567a986e5f87aa0eae71f3dd8837cb4a849c9472aa6d0930786868686868642604051610cb89796959493929190612ff9565b60405180910390a1505050505050565b6000806002600084815260200190815260200160002060009054906101000a900473ffffffffffffffffffffffffffffffffffffffff169050600073ffffffffffffffffffffffffffffffffffffffff168173ffffffffffffffffffffffffffffffffffffffff161415610d71576040517f08c379a0000000000000000000000000000000000000000000000000000000008152600401610d68906131c7565b60405180910390fd5b80915050919050565b60008073ffffffffffffffffffffffffffffffffffffffff168273ffffffffffffffffffffffffffffffffffffffff161415610deb576040517f08c379a0000000000000000000000000000000000000000000000000000000008152600401610de2906131a7565b60405180910390fd5b600360008373ffffffffffffffffffffffffffffffffffffffff1673ffffffffffffffffffffffffffffffffffffffff168152602001908152602001600020549050919050565b606060018054610e4190613546565b80601f0160208091040260200160405190810160405280929190818152602001828054610e6d90613546565b8015610eba5780601f10610e8f57610100808354040283529160200191610eba565b820191906000526020600020905b815481529060010190602001808311610e9d57829003601f168201915b5050505050905090565b610ecc611615565b73ffffffffffffffffffffffffffffffffffffffff168273ffffffffffffffffffffffffffffffffffffffff161415610f3a576040517f08c379a0000000000000000000000000000000000000000000000000000000008152600401610f3190613147565b60405180910390fd5b8060056000610f47611615565b73ffffffffffffffffffffffffffffffffffffffff1673ffffffffffffffffffffffffffffffffffffffff16815260200190815260200160002060008473ffffffffffffffffffffffffffffffffffffffff1673ffffffffffffffffffffffffffffffffffffffff16815260200190815260200160002060006101000a81548160ff0219169083151502179055508173ffffffffffffffffffffffffffffffffffffffff16610ff4611615565b73ffffffffffffffffffffffffffffffffffffffff167f17307eab39ab6107e8899845ad3d59bd9653f200f220920489ca2b5937696c31836040516110399190612fde565b60405180910390a35050565b611056611050611615565b8361177c565b611095576040517f08c379a000000000000000000000000000000000000000000000000000000000815260040161108c906132a7565b60405180910390fd5b6110a184848484611ab6565b50505050565b60606110b2826115a9565b6110f1576040517f08c379a00000000000000000000000000000000000000000000000000000000081526004016110e890613227565b60405180910390fd5b6000600d600084815260200190815260200160002060405180606001604052908160008201805461112190613546565b80601f016020809104026020016040519081016040528092919081815260200182805461114d90613546565b801561119a5780601f1061116f5761010080835404028352916020019161119a565b820191906000526020600020905b81548152906001019060200180831161117d57829003601f168201915b505050505081526020016001820180546111b390613546565b80601f01602080910402602001604051908101604052809291908181526020018280546111df90613546565b801561122c5780601f106112015761010080835404028352916020019161122c565b820191906000526020600020905b81548152906001019060200180831161120f57829003601f168201915b5050505050815260200160028201805461124590613546565b80601f016020809104026020016040519081016040528092919081815260200182805461127190613546565b80156112be5780601f10611293576101008083540402835291602001916112be565b820191906000526020600020905b8154815290600101906020018083116112a157829003601f168201915b50505050508152505090506112e0816000015182602001518360400151611b12565b915050919050565b6000600c80549050905090565b606060006114a26009805461130990613546565b80601f016020809104026020016040519081016040528092919081815260200182805461133590613546565b80156113825780601f1061135757610100808354040283529160200191611382565b820191906000526020600020905b81548152906001019060200180831161136557829003601f168201915b5050505050600a805461139490613546565b80601f01602080910402602001604051908101604052809291908181526020018280546113c090613546565b801561140d5780601f106113e25761010080835404028352916020019161140d565b820191906000526020600020905b8154815290600101906020018083116113f057829003601f168201915b5050505050600b805461141f90613546565b80601f016020809104026020016040519081016040528092919081815260200182805461144b90613546565b80156114985780601f1061146d57610100808354040283529160200191611498565b820191906000526020600020905b81548152906001019060200180831161147b57829003601f168201915b5050505050611b12565b90508091505090565b6000600560008473ffffffffffffffffffffffffffffffffffffffff1673ffffffffffffffffffffffffffffffffffffffff16815260200190815260200160002060008373ffffffffffffffffffffffffffffffffffffffff1673ffffffffffffffffffffffffffffffffffffffff16815260200190815260200160002060009054906101000a900460ff16905092915050565b60007f01ffc9a7000000000000000000000000000000000000000000000000000000007bffffffffffffffffffffffffffffffffffffffffffffffffffffffff1916827bffffffffffffffffffffffffffffffffffffffffffffffffffffffff1916149050919050565b60008073ffffffffffffffffffffffffffffffffffffffff166002600084815260200190815260200160002060009054906101000a900473ffffffffffffffffffffffffffffffffffffffff1673ffffffffffffffffffffffffffffffffffffffff1614159050919050565b600033905090565b816004600083815260200190815260200160002060006101000a81548173ffffffffffffffffffffffffffffffffffffffff021916908373ffffffffffffffffffffffffffffffffffffffff160217905550808273ffffffffffffffffffffffffffffffffffffffff1661169083610cc8565b73ffffffffffffffffffffffffffffffffffffffff167f8c5be1e5ebec7d5bd14f71427d1e84f3dd0314c0f7b2291e5b200ac8c7c3b92560405160405180910390a45050565b600081600001549050919050565b6116fe828260405180602001604052806000815250611b74565b5050565b61170a612566565b600061173a434233866040516020016117269493929190612ef2565b604051602081830303815290604052611bcf565b9050600c805490508161174d91906135d7565b9050600061175a82611c02565b90508092505050919050565b6001816000016000828254019250508190555050565b6000611787826115a9565b6117c6576040517f08c379a00000000000000000000000000000000000000000000000000000000081526004016117bd90613167565b60405180910390fd5b60006117d183610cc8565b90508073ffffffffffffffffffffffffffffffffffffffff168473ffffffffffffffffffffffffffffffffffffffff16148061184057508373ffffffffffffffffffffffffffffffffffffffff1661182884610564565b73ffffffffffffffffffffffffffffffffffffffff16145b80611851575061185081856114ab565b5b91505092915050565b8273ffffffffffffffffffffffffffffffffffffffff1661187a82610cc8565b73ffffffffffffffffffffffffffffffffffffffff16146118d0576040517f08c379a00000000000000000000000000000000000000000000000000000000081526004016118c790613267565b60405180910390fd5b600073ffffffffffffffffffffffffffffffffffffffff168273ffffffffffffffffffffffffffffffffffffffff161415611940576040517f08c379a000000000000000000000000000000000000000000000000000000000815260040161193790613127565b60405180910390fd5b61194b838383611fa5565b61195660008261161d565b6001600360008573ffffffffffffffffffffffffffffffffffffffff1673ffffffffffffffffffffffffffffffffffffffff16815260200190815260200160002060008282546119a6919061345c565b925050819055506001600360008473ffffffffffffffffffffffffffffffffffffffff1673ffffffffffffffffffffffffffffffffffffffff16815260200190815260200160002060008282546119fd919061337b565b92505081905550816002600083815260200190815260200160002060006101000a81548173ffffffffffffffffffffffffffffffffffffffff021916908373ffffffffffffffffffffffffffffffffffffffff160217905550808273ffffffffffffffffffffffffffffffffffffffff168473ffffffffffffffffffffffffffffffffffffffff167fddf252ad1be2c89b69c2b068fc378daa952ba7f163c4a11628f55a4df523b3ef60405160405180910390a4505050565b611ac184848461185a565b611acd84848484611faa565b611b0c576040517f08c379a0000000000000000000000000000000000000000000000000000000008152600401611b03906130e7565b60405180910390fd5b50505050565b60606000611b42858585604051602001611b2e93929190612e73565b604051602081830303815290604052612141565b9050600081604051602001611b579190612ed0565b604051602081830303815290604052905080925050509392505050565b611b7e83836122ff565b611b8b6000848484611faa565b611bca576040517f08c379a0000000000000000000000000000000000000000000000000000000008152600401611bc1906130e7565b60405180910390fd5b505050565b600081604051602001611be29190612e5c565b6040516020818303038152906040528051906020012060001c9050919050565b611c0a612566565b6000600c8381548110611c46577f4e487b7100000000000000000000000000000000000000000000000000000000600052603260045260246000fd5b9060005260206000209060030201604051806060016040529081600082018054611c6f90613546565b80601f0160208091040260200160405190810160405280929190818152602001828054611c9b90613546565b8015611ce85780601f10611cbd57610100808354040283529160200191611ce8565b820191906000526020600020905b815481529060010190602001808311611ccb57829003601f168201915b50505050508152602001600182018054611d0190613546565b80601f0160208091040260200160405190810160405280929190818152602001828054611d2d90613546565b8015611d7a5780601f10611d4f57610100808354040283529160200191611d7a565b820191906000526020600020905b815481529060010190602001808311611d5d57829003601f168201915b50505050508152602001600282018054611d9390613546565b80601f0160208091040260200160405190810160405280929190818152602001828054611dbf90613546565b8015611e0c5780601f10611de157610100808354040283529160200191611e0c565b820191906000526020600020905b815481529060010190602001808311611def57829003601f168201915b5050505050815250509050600c6001600c80549050611e2b919061345c565b81548110611e62577f4e487b7100000000000000000000000000000000000000000000000000000000600052603260045260246000fd5b9060005260206000209060030201600c8481548110611eaa577f4e487b7100000000000000000000000000000000000000000000000000000000600052603260045260246000fd5b90600052602060002090600302016000820181600001908054611ecc90613546565b611ed7929190612587565b506001820181600101908054611eec90613546565b611ef7929190612587565b506002820181600201908054611f0c90613546565b611f17929190612587565b50905050600c805480611f53577f4e487b7100000000000000000000000000000000000000000000000000000000600052603160045260246000fd5b600190038181906000526020600020906003020160008082016000611f789190612614565b600182016000611f889190612614565b600282016000611f989190612614565b5050905580915050919050565b505050565b6000611fcb8473ffffffffffffffffffffffffffffffffffffffff166124cd565b15612134578373ffffffffffffffffffffffffffffffffffffffff1663150b7a02611ff4611615565b8786866040518563ffffffff1660e01b81526004016120169493929190612f5b565b602060405180830381600087803b15801561203057600080fd5b505af192505050801561206157506040513d601f19601f8201168201806040525081019061205e919061295c565b60015b6120e4573d8060008114612091576040519150601f19603f3d011682016040523d82523d6000602084013e612096565b606091505b506000815114156120dc576040517f08c379a00000000000000000000000000000000000000000000000000000000081526004016120d3906130e7565b60405180910390fd5b805181602001fd5b63150b7a0260e01b7bffffffffffffffffffffffffffffffffffffffffffffffffffffffff1916817bffffffffffffffffffffffffffffffffffffffffffffffffffffffff191614915050612139565b600190505b949350505050565b6060600082519050600081141561216a57604051806020016040528060008152509150506122fa565b6000600360028361217b919061337b565b61218591906133d1565b60046121919190613402565b905060006020826121a2919061337b565b67ffffffffffffffff8111156121e1577f4e487b7100000000000000000000000000000000000000000000000000000000600052604160045260246000fd5b6040519080825280601f01601f1916602001820160405280156122135781602001600182028036833780820191505090505b5090506000604051806060016040528060408152602001613c3e604091399050600181016020830160005b868110156122b75760038101905062ffffff818a015116603f8160121c168401518060081b905060ff603f83600c1c1686015116810190508060081b905060ff603f8360061c1686015116810190508060081b905060ff603f831686015116810190508060e01b9050808452600484019350505061223e565b5060038606600181146122d157600281146122e1576122ec565b613d3d60f01b60028303526122ec565b603d60f81b60018303525b508484525050819450505050505b919050565b600073ffffffffffffffffffffffffffffffffffffffff168273ffffffffffffffffffffffffffffffffffffffff16141561236f576040517f08c379a0000000000000000000000000000000000000000000000000000000008152600401612366906131e7565b60405180910390fd5b612378816115a9565b156123b8576040517f08c379a00000000000000000000000000000000000000000000000000000000081526004016123af90613107565b60405180910390fd5b6123c460008383611fa5565b6001600360008473ffffffffffffffffffffffffffffffffffffffff1673ffffffffffffffffffffffffffffffffffffffff1681526020019081526020016000206000828254612414919061337b565b92505081905550816002600083815260200190815260200160002060006101000a81548173ffffffffffffffffffffffffffffffffffffffff021916908373ffffffffffffffffffffffffffffffffffffffff160217905550808273ffffffffffffffffffffffffffffffffffffffff16600073ffffffffffffffffffffffffffffffffffffffff167fddf252ad1be2c89b69c2b068fc378daa952ba7f163c4a11628f55a4df523b3ef60405160405180910390a45050565b600080823b905060008111915050919050565b8280546124ec90613546565b90600052602060002090601f01602090048101928261250e5760008555612555565b82601f1061252757805160ff1916838001178555612555565b82800160010185558215612555579182015b82811115612554578251825591602001919060010190612539565b5b5090506125629190612654565b5090565b60405180606001604052806060815260200160608152602001606081525090565b82805461259390613546565b90600052602060002090601f0160209004810192826125b55760008555612603565b82601f106125c65780548555612603565b8280016001018555821561260357600052602060002091601f016020900482015b828111156126025782548255916001019190600101906125e7565b5b5090506126109190612654565b5090565b50805461262090613546565b6000825580601f106126325750612651565b601f0160209004906000526020600020908101906126509190612654565b5b50565b5b8082111561266d576000816000905550600101612655565b5090565b600061268461267f84613307565b6132e2565b90508281526020810184848401111561269c57600080fd5b6126a7848285613504565b509392505050565b6000813590506126be81613be1565b92915050565b6000813590506126d381613bf8565b92915050565b6000813590506126e881613c0f565b92915050565b6000815190506126fd81613c0f565b92915050565b600082601f83011261271457600080fd5b8135612724848260208601612671565b91505092915050565b60008083601f84011261273f57600080fd5b8235905067ffffffffffffffff81111561275857600080fd5b60208301915083600182028301111561277057600080fd5b9250929050565b60008135905061278681613c26565b92915050565b60006020828403121561279e57600080fd5b60006127ac848285016126af565b91505092915050565b600080604083850312156127c857600080fd5b60006127d6858286016126af565b92505060206127e7858286016126af565b9150509250929050565b60008060006060848603121561280657600080fd5b6000612814868287016126af565b9350506020612825868287016126af565b925050604061283686828701612777565b9150509250925092565b6000806000806080858703121561285657600080fd5b6000612864878288016126af565b9450506020612875878288016126af565b935050604061288687828801612777565b925050606085013567ffffffffffffffff8111156128a357600080fd5b6128af87828801612703565b91505092959194509250565b600080604083850312156128ce57600080fd5b60006128dc858286016126af565b92505060206128ed858286016126c4565b9150509250929050565b6000806040838503121561290a57600080fd5b6000612918858286016126af565b925050602061292985828601612777565b9150509250929050565b60006020828403121561294557600080fd5b6000612953848285016126d9565b91505092915050565b60006020828403121561296e57600080fd5b600061297c848285016126ee565b91505092915050565b6000806000806000806060878903121561299e57600080fd5b600087013567ffffffffffffffff8111156129b857600080fd5b6129c489828a0161272d565b9650965050602087013567ffffffffffffffff8111156129e357600080fd5b6129ef89828a0161272d565b9450945050604087013567ffffffffffffffff811115612a0e57600080fd5b612a1a89828a0161272d565b92509250509295509295509295565b600060208284031215612a3b57600080fd5b6000612a4984828501612777565b91505092915050565b612a5b81613490565b82525050565b612a72612a6d82613490565b6135a9565b82525050565b612a81816134a2565b82525050565b6000612a9282613338565b612a9c818561334e565b9350612aac818560208601613513565b612ab5816136c4565b840191505092915050565b6000612acc838561335f565b9350612ad9838584613504565b612ae2836136c4565b840190509392505050565b6000612af882613343565b612b02818561335f565b9350612b12818560208601613513565b612b1b816136c4565b840191505092915050565b6000612b3182613343565b612b3b8185613370565b9350612b4b818560208601613513565b80840191505092915050565b6000612b64601383613370565b9150612b6f826136e2565b601382019050919050565b6000612b87601b8361335f565b9150612b928261370b565b602082019050919050565b6000612baa60328361335f565b9150612bb582613734565b604082019050919050565b6000612bcd601c8361335f565b9150612bd882613783565b602082019050919050565b6000612bf060248361335f565b9150612bfb826137ac565b604082019050919050565b6000612c1360198361335f565b9150612c1e826137fb565b602082019050919050565b6000612c36602c8361335f565b9150612c4182613824565b604082019050919050565b6000612c5960388361335f565b9150612c6482613873565b604082019050919050565b6000612c7c602a8361335f565b9150612c87826138c2565b604082019050919050565b6000612c9f60298361335f565b9150612caa82613911565b604082019050919050565b6000612cc2600283613370565b9150612ccd82613960565b600282019050919050565b6000612ce560208361335f565b9150612cf082613989565b602082019050919050565b6000612d0860158361335f565b9150612d13826139b2565b602082019050919050565b6000612d2b600d83613370565b9150612d36826139db565b600d82019050919050565b6000612d4e60318361335f565b9150612d5982613a04565b604082019050919050565b6000612d71602c8361335f565b9150612d7c82613a53565b604082019050919050565b6000612d9460298361335f565b9150612d9f82613aa2565b604082019050919050565b6000612db7600a83613370565b9150612dc282613af1565b600a82019050919050565b6000612dda60218361335f565b9150612de582613b1a565b604082019050919050565b6000612dfd601d83613370565b9150612e0882613b69565b601d82019050919050565b6000612e2060318361335f565b9150612e2b82613b92565b604082019050919050565b612e3f816134fa565b82525050565b612e56612e51826134fa565b6135cd565b82525050565b6000612e688284612b26565b915081905092915050565b6000612e7e82612daa565b9150612e8a8286612b26565b9150612e9582612b57565b9150612ea18285612b26565b9150612eac82612d1e565b9150612eb88284612b26565b9150612ec382612cb5565b9150819050949350505050565b6000612edb82612df0565b9150612ee78284612b26565b915081905092915050565b6000612efe8287612e45565b602082019150612f0e8286612e45565b602082019150612f1e8285612a61565b601482019150612f2e8284612e45565b60208201915081905095945050505050565b6000602082019050612f556000830184612a52565b92915050565b6000608082019050612f706000830187612a52565b612f7d6020830186612a52565b612f8a6040830185612e36565b8181036060830152612f9c8184612a87565b905095945050505050565b6000606082019050612fbc6000830186612a52565b612fc96020830185612e36565b612fd66040830184612e36565b949350505050565b6000602082019050612ff36000830184612a78565b92915050565b6000608082019050818103600083015261301481898b612ac0565b90508181036020830152613029818789612ac0565b9050818103604083015261303e818587612ac0565b905061304d6060830184612e36565b98975050505050505050565b600060208201905081810360008301526130738184612aed565b905092915050565b600060608201905081810360008301526130958186612aed565b905081810360208301526130a98185612aed565b905081810360408301526130bd8184612aed565b9050949350505050565b600060208201905081810360008301526130e081612b7a565b9050919050565b6000602082019050818103600083015261310081612b9d565b9050919050565b6000602082019050818103600083015261312081612bc0565b9050919050565b6000602082019050818103600083015261314081612be3565b9050919050565b6000602082019050818103600083015261316081612c06565b9050919050565b6000602082019050818103600083015261318081612c29565b9050919050565b600060208201905081810360008301526131a081612c4c565b9050919050565b600060208201905081810360008301526131c081612c6f565b9050919050565b600060208201905081810360008301526131e081612c92565b9050919050565b6000602082019050818103600083015261320081612cd8565b9050919050565b6000602082019050818103600083015261322081612cfb565b9050919050565b6000602082019050818103600083015261324081612d41565b9050919050565b6000602082019050818103600083015261326081612d64565b9050919050565b6000602082019050818103600083015261328081612d87565b9050919050565b600060208201905081810360008301526132a081612dcd565b9050919050565b600060208201905081810360008301526132c081612e13565b9050919050565b60006020820190506132dc6000830184612e36565b92915050565b60006132ec6132fd565b90506132f88282613578565b919050565b6000604051905090565b600067ffffffffffffffff82111561332257613321613695565b5b61332b826136c4565b9050602081019050919050565b600081519050919050565b600081519050919050565b600082825260208201905092915050565b600082825260208201905092915050565b600081905092915050565b6000613386826134fa565b9150613391836134fa565b9250827fffffffffffffffffffffffffffffffffffffffffffffffffffffffffffffffff038211156133c6576133c5613608565b5b828201905092915050565b60006133dc826134fa565b91506133e7836134fa565b9250826133f7576133f6613637565b5b828204905092915050565b600061340d826134fa565b9150613418836134fa565b9250817fffffffffffffffffffffffffffffffffffffffffffffffffffffffffffffffff048311821515161561345157613450613608565b5b828202905092915050565b6000613467826134fa565b9150613472836134fa565b92508282101561348557613484613608565b5b828203905092915050565b600061349b826134da565b9050919050565b60008115159050919050565b60007fffffffff0000000000000000000000000000000000000000000000000000000082169050919050565b600073ffffffffffffffffffffffffffffffffffffffff82169050919050565b6000819050919050565b82818337600083830152505050565b60005b83811015613531578082015181840152602081019050613516565b83811115613540576000848401525b50505050565b6000600282049050600182168061355e57607f821691505b6020821081141561357257613571613666565b5b50919050565b613581826136c4565b810181811067ffffffffffffffff821117156135a05761359f613695565b5b80604052505050565b60006135b4826135bb565b9050919050565b60006135c6826136d5565b9050919050565b6000819050919050565b60006135e2826134fa565b91506135ed836134fa565b9250826135fd576135fc613637565b5b828206905092915050565b7f4e487b7100000000000000000000000000000000000000000000000000000000600052601160045260246000fd5b7f4e487b7100000000000000000000000000000000000000000000000000000000600052601260045260246000fd5b7f4e487b7100000000000000000000000000000000000000000000000000000000600052602260045260246000fd5b7f4e487b7100000000000000000000000000000000000000000000000000000000600052604160045260246000fd5b6000601f19601f8301169050919050565b60008160601b9050919050565b7f222c20226465736372697074696f6e223a202200000000000000000000000000600082015250565b7f5468657265206973206e6f20617661696c61626c65206974656d730000000000600082015250565b7f4552433732313a207472616e7366657220746f206e6f6e20455243373231526560008201527f63656976657220696d706c656d656e7465720000000000000000000000000000602082015250565b7f4552433732313a20746f6b656e20616c7265616479206d696e74656400000000600082015250565b7f4552433732313a207472616e7366657220746f20746865207a65726f2061646460008201527f7265737300000000000000000000000000000000000000000000000000000000602082015250565b7f4552433732313a20617070726f766520746f2063616c6c657200000000000000600082015250565b7f4552433732313a206f70657261746f7220717565727920666f72206e6f6e657860008201527f697374656e7420746f6b656e0000000000000000000000000000000000000000602082015250565b7f4552433732313a20617070726f76652063616c6c6572206973206e6f74206f7760008201527f6e6572206e6f7220617070726f76656420666f7220616c6c0000000000000000602082015250565b7f4552433732313a2062616c616e636520717565727920666f7220746865207a6560008201527f726f206164647265737300000000000000000000000000000000000000000000602082015250565b7f4552433732313a206f776e657220717565727920666f72206e6f6e657869737460008201527f656e7420746f6b656e0000000000000000000000000000000000000000000000602082015250565b7f227d000000000000000000000000000000000000000000000000000000000000600082015250565b7f4552433732313a206d696e7420746f20746865207a65726f2061646472657373600082015250565b7f6f6e6c79206f776e657220697320616c6c6f7765640000000000000000000000600082015250565b7f222c2022696d616765223a202200000000000000000000000000000000000000600082015250565b7f45524337323155524953746f726167653a2055524920717565727920666f722060008201527f6e6f6e6578697374656e7420746f6b656e000000000000000000000000000000602082015250565b7f4552433732313a20617070726f76656420717565727920666f72206e6f6e657860008201527f697374656e7420746f6b656e0000000000000000000000000000000000000000602082015250565b7f4552433732313a207472616e73666572206f6620746f6b656e2074686174206960008201527f73206e6f74206f776e0000000000000000000000000000000000000000000000602082015250565b7f7b226e616d65223a202200000000000000000000000000000000000000000000600082015250565b7f4552433732313a20617070726f76616c20746f2063757272656e74206f776e6560008201527f7200000000000000000000000000000000000000000000000000000000000000602082015250565b7f646174613a6170706c69636174696f6e2f6a736f6e3b6261736536342c000000600082015250565b7f4552433732313a207472616e736665722063616c6c6572206973206e6f74206f60008201527f776e6572206e6f7220617070726f766564000000000000000000000000000000602082015250565b613bea81613490565b8114613bf557600080fd5b50565b613c01816134a2565b8114613c0c57600080fd5b50565b613c18816134ae565b8114613c2357600080fd5b50565b613c2f816134fa565b8114613c3a57600080fd5b5056fe4142434445464748494a4b4c4d4e4f505152535455565758595a6162636465666768696a6b6c6d6e6f707172737475767778797a303132333435363738392b2fa26469706673582212202c90bb8e07b5a8425e0e8fdef33f23d9cb6bb730e66e41478e2788605c1cbe5e64736f6c63430008040033","linkReferences":{},"deployedLinkReferences":{},"address":"0x37888ca4bd1Ff89538778b30b85F58FDEBfB69CA"}